{
  "contractName": "AgentWalletFactory",
  "abi": [
    {
      "inputs": [
        {
          "internalType": "address",
          "name": "_policyGuard",
          "type": "address"
        }
      ],
      "stateMutability": "nonpayable",
      "type": "constructor"
    },
    {
      "anonymous": false,
      "inputs": [
        {
          "indexed": false,
          "internalType": "address",
          "name": "wallet",
          "type": "address"
        },
        {
          "indexed": false,
          "internalType": "address",
          "name": "agent",
          "type": "address"
        },
        {
          "indexed": false,
          "internalType": "address",
          "name": "owner",
          "type": "address"
        },
        {
          "indexed": false,
          "internalType": "string",
          "name": "did",
          "type": "string"
        },
        {
          "indexed": false,
          "internalType": "string",
          "name": "agentType",
          "type": "string"
        }
      ],
      "name": "AgentRegistered",
      "type": "event"
    },
    {
      "inputs": [
        {
          "internalType": "uint256",
          "name": "",
          "type": "uint256"
        }
      ],
      "name": "agentWallets",
      "outputs": [
        {
          "internalType": "contract AgentWallet",
          "name": "",
          "type": "address"
        }
      ],
      "stateMutability": "view",
      "type": "function"
    },
    {
      "inputs": [
        {
          "internalType": "address",
          "name": "",
          "type": "address"
        }
      ],
      "name": "agents",
      "outputs": [
        {
          "internalType": "address",
          "name": "walletAddress",
          "type": "address"
        },
        {
          "internalType": "address",
          "name": "agentAddress",
          "type": "address"
        },
        {
          "internalType": "address",
          "name": "ownerAddress",
          "type": "address"
        },
        {
          "internalType": "string",
          "name": "agentDid",
          "type": "string"
        },
        {
          "internalType": "string",
          "name": "agentType",
          "type": "string"
        },
        {
          "internalType": "uint256",
          "name": "createdAt",
          "type": "uint256"
        },
        {
          "internalType": "bool",
          "name": "active",
          "type": "bool"
        }
      ],
      "stateMutability": "view",
      "type": "function"
    },
    {
      "inputs": [
        {
          "internalType": "string",
          "name": "",
          "type": "string"
        }
      ],
      "name": "didToAgent",
      "outputs": [
        {
          "internalType": "address",
          "name": "",
          "type": "address"
        }
      ],
      "stateMutability": "view",
      "type": "function"
    },
    {
      "inputs": [
        {
          "internalType": "address",
          "name": "",
          "type": "address"
        }
      ],
      "name": "isRegistered",
      "outputs": [
        {
          "internalType": "bool",
          "name": "",
          "type": "bool"
        }
      ],
      "stateMutability": "view",
      "type": "function"
    },
    {
      "inputs": [
        {
          "internalType": "address",
          "name": "",
          "type": "address"
        },
        {
          "internalType": "uint256",
          "name": "",
          "type": "uint256"
        }
      ],
      "name": "ownerAgents",
      "outputs": [
        {
          "internalType": "address",
          "name": "",
          "type": "address"
        }
      ],
      "stateMutability": "view",
      "type": "function"
    },
    {
      "inputs": [],
      "name": "platformOwner",
      "outputs": [
        {
          "internalType": "address",
          "name": "",
          "type": "address"
        }
      ],
      "stateMutability": "view",
      "type": "function"
    },
    {
      "inputs": [],
      "name": "policyGuard",
      "outputs": [
        {
          "internalType": "contract PolicyGuard",
          "name": "",
          "type": "address"
        }
      ],
      "stateMutability": "view",
      "type": "function"
    },
    {
      "inputs": [
        {
          "internalType": "address",
          "name": "_agent",
          "type": "address"
        },
        {
          "internalType": "string",
          "name": "_did",
          "type": "string"
        },
        {
          "internalType": "string",
          "name": "_type",
          "type": "string"
        },
        {
          "internalType": "uint256",
          "name": "_maxTx",
          "type": "uint256"
        },
        {
          "internalType": "uint256",
          "name": "_maxD",
          "type": "uint256"
        },
        {
          "internalType": "uint256",
          "name": "_maxM",
          "type": "uint256"
        },
        {
          "internalType": "uint256",
          "name": "_hT",
          "type": "uint256"
        }
      ],
      "name": "registerAgent",
      "outputs": [
        {
          "internalType": "address",
          "name": "w",
          "type": "address"
        }
      ],
      "stateMutability": "nonpayable",
      "type": "function"
    },
    {
      "inputs": [],
      "name": "getAgentCount",
      "outputs": [
        {
          "internalType": "uint256",
          "name": "",
          "type": "uint256"
        }
      ],
      "stateMutability": "view",
      "type": "function"
    }
  ],
  "bytecode": "0x60806040523480156200001157600080fd5b5060405162003ff238038062003ff2833981810160405281019062000037919062000129565b336000806101000a81548173ffffffffffffffffffffffffffffffffffffffff021916908373ffffffffffffffffffffffffffffffffffffffff16021790555080600160006101000a81548173ffffffffffffffffffffffffffffffffffffffff021916908373ffffffffffffffffffffffffffffffffffffffff160217905550506200015b565b600080fd5b600073ffffffffffffffffffffffffffffffffffffffff82169050919050565b6000620000f182620000c4565b9050919050565b6200010381620000e4565b81146200010f57600080fd5b50565b6000815190506200012381620000f8565b92915050565b600060208284031215620001425762000141620000bf565b5b6000620001528482850162000112565b91505092915050565b613e87806200016b6000396000f3fe60806040523480156200001157600080fd5b5060043610620000a05760003560e01c806391cab63e116200006f57806391cab63e1462000155578063b55ac0b31462000177578063c3c5a54714620001ad578063ebf1f85914620001e3578063fd66091e146200021957620000a0565b80632c8cc4ac14620000a55780634df8ccb114620000c757806362febe4f14620000e9578063702e827c146200011f575b600080fd5b620000af62000255565b604051620000be919062000c4f565b60405180910390f35b620000d16200027b565b604051620000e0919062000c91565b60405180910390f35b62000107600480360381019062000101919062000d2e565b6200029f565b60405162000116919062000c91565b60405180910390f35b6200013d600480360381019062000137919062000ed7565b620002ee565b6040516200014c919062000c91565b60405180910390f35b6200015f62000337565b6040516200016e919062000f39565b60405180910390f35b6200019560048036038101906200018f919062000f56565b62000344565b604051620001a4919062000c91565b60405180910390f35b620001cb6004803603810190620001c5919062001047565b620008d7565b604051620001da919062001096565b60405180910390f35b620002016004803603810190620001fb9190620010b3565b620008f7565b6040516200021091906200111e565b60405180910390f35b62000237600480360381019062000231919062001047565b62000937565b6040516200024c9796959493929190620011ce565b60405180910390f35b600160009054906101000a900473ffffffffffffffffffffffffffffffffffffffff1681565b60008054906101000a900473ffffffffffffffffffffffffffffffffffffffff1681565b60056020528160005260406000208181548110620002bc57600080fd5b906000526020600020016000915091509054906101000a900473ffffffffffffffffffffffffffffffffffffffff1681565b6004818051602081018201805184825260208301602085012081835280955050505050506000915054906101000a900473ffffffffffffffffffffffffffffffffffffffff1681565b6000600280549050905090565b6000600660008973ffffffffffffffffffffffffffffffffffffffff1673ffffffffffffffffffffffffffffffffffffffff16815260200190815260200160002060009054906101000a900460ff1615620003d6576040517f08c379a0000000000000000000000000000000000000000000000000000000008152600401620003cd90620012a9565b60405180910390fd5b600160009054906101000a900473ffffffffffffffffffffffffffffffffffffffff1673ffffffffffffffffffffffffffffffffffffffff16635b26b81989878787876040518663ffffffff1660e01b81526004016200043b959493929190620012cb565b600060405180830381600087803b1580156200045657600080fd5b505af11580156200046b573d6000803e3d6000fd5b5050505060008833600160009054906101000a900473ffffffffffffffffffffffffffffffffffffffff168a8a604051620004a69062000b06565b620004b695949392919062001328565b604051809103906000f080158015620004d3573d6000803e3d6000fd5b5090508091506002819080600181540180825580915050600190039060005260206000200160009091909190916101000a81548173ffffffffffffffffffffffffffffffffffffffff021916908373ffffffffffffffffffffffffffffffffffffffff1602179055506040518060e001604052808373ffffffffffffffffffffffffffffffffffffffff1681526020018a73ffffffffffffffffffffffffffffffffffffffff1681526020013373ffffffffffffffffffffffffffffffffffffffff16815260200189815260200188815260200142815260200160011515815250600360008b73ffffffffffffffffffffffffffffffffffffffff1673ffffffffffffffffffffffffffffffffffffffff16815260200190815260200160002060008201518160000160006101000a81548173ffffffffffffffffffffffffffffffffffffffff021916908373ffffffffffffffffffffffffffffffffffffffff16021790555060208201518160010160006101000a81548173ffffffffffffffffffffffffffffffffffffffff021916908373ffffffffffffffffffffffffffffffffffffffff16021790555060408201518160020160006101000a81548173ffffffffffffffffffffffffffffffffffffffff021916908373ffffffffffffffffffffffffffffffffffffffff1602179055506060820151816003019080519060200190620006e692919062000b14565b5060808201518160040190805190602001906200070592919062000b14565b5060a0820151816005015560c08201518160060160006101000a81548160ff02191690831515021790555090505088600489604051620007469190620013d5565b908152602001604051809103902060006101000a81548173ffffffffffffffffffffffffffffffffffffffff021916908373ffffffffffffffffffffffffffffffffffffffff160217905550600560003373ffffffffffffffffffffffffffffffffffffffff1673ffffffffffffffffffffffffffffffffffffffff168152602001908152602001600020899080600181540180825580915050600190039060005260206000200160009091909190916101000a81548173ffffffffffffffffffffffffffffffffffffffff021916908373ffffffffffffffffffffffffffffffffffffffff1602179055506001600660008b73ffffffffffffffffffffffffffffffffffffffff1673ffffffffffffffffffffffffffffffffffffffff16815260200190815260200160002060006101000a81548160ff0219169083151502179055507fd6003d28e592751838455252036c6e1fb69580374d1979727b9bb780e4bc616f828a338b8b604051620008c395949392919062001328565b60405180910390a150979650505050505050565b60066020528060005260406000206000915054906101000a900460ff1681565b600281815481106200090857600080fd5b906000526020600020016000915054906101000a900473ffffffffffffffffffffffffffffffffffffffff1681565b60036020528060005260406000206000915090508060000160009054906101000a900473ffffffffffffffffffffffffffffffffffffffff16908060010160009054906101000a900473ffffffffffffffffffffffffffffffffffffffff16908060020160009054906101000a900473ffffffffffffffffffffffffffffffffffffffff1690806003018054620009ce906200141d565b80601f0160208091040260200160405190810160405280929190818152602001828054620009fc906200141d565b801562000a4d5780601f1062000a215761010080835404028352916020019162000a4d565b820191906000526020600020905b81548152906001019060200180831162000a2f57829003601f168201915b50505050509080600401805462000a64906200141d565b80601f016020809104026020016040519081016040528092919081815260200182805462000a92906200141d565b801562000ae35780601f1062000ab75761010080835404028352916020019162000ae3565b820191906000526020600020905b81548152906001019060200180831162000ac557829003601f168201915b5050505050908060050154908060060160009054906101000a900460ff16905087565b6129fe806200145483390190565b82805462000b22906200141d565b90600052602060002090601f01602090048101928262000b46576000855562000b92565b82601f1062000b6157805160ff191683800117855562000b92565b8280016001018555821562000b92579182015b8281111562000b9157825182559160200191906001019062000b74565b5b50905062000ba1919062000ba5565b5090565b5b8082111562000bc057600081600090555060010162000ba6565b5090565b600073ffffffffffffffffffffffffffffffffffffffff82169050919050565b6000819050919050565b600062000c0f62000c0962000c038462000bc4565b62000be4565b62000bc4565b9050919050565b600062000c238262000bee565b9050919050565b600062000c378262000c16565b9050919050565b62000c498162000c2a565b82525050565b600060208201905062000c66600083018462000c3e565b92915050565b600062000c798262000bc4565b9050919050565b62000c8b8162000c6c565b82525050565b600060208201905062000ca8600083018462000c80565b92915050565b6000604051905090565b600080fd5b600080fd5b62000ccd8162000c6c565b811462000cd957600080fd5b50565b60008135905062000ced8162000cc2565b92915050565b6000819050919050565b62000d088162000cf3565b811462000d1457600080fd5b50565b60008135905062000d288162000cfd565b92915050565b6000806040838503121562000d485762000d4762000cb8565b5b600062000d588582860162000cdc565b925050602062000d6b8582860162000d17565b9150509250929050565b600080fd5b600080fd5b6000601f19601f8301169050919050565b7f4e487b7100000000000000000000000000000000000000000000000000000000600052604160045260246000fd5b62000dca8262000d7f565b810181811067ffffffffffffffff8211171562000dec5762000deb62000d90565b5b80604052505050565b600062000e0162000cae565b905062000e0f828262000dbf565b919050565b600067ffffffffffffffff82111562000e325762000e3162000d90565b5b62000e3d8262000d7f565b9050602081019050919050565b82818337600083830152505050565b600062000e7062000e6a8462000e14565b62000df5565b90508281526020810184848401111562000e8f5762000e8e62000d7a565b5b62000e9c84828562000e4a565b509392505050565b600082601f83011262000ebc5762000ebb62000d75565b5b813562000ece84826020860162000e59565b91505092915050565b60006020828403121562000ef05762000eef62000cb8565b5b600082013567ffffffffffffffff81111562000f115762000f1062000cbd565b5b62000f1f8482850162000ea4565b91505092915050565b62000f338162000cf3565b82525050565b600060208201905062000f50600083018462000f28565b92915050565b600080600080600080600060e0888a03121562000f785762000f7762000cb8565b5b600062000f888a828b0162000cdc565b975050602088013567ffffffffffffffff81111562000fac5762000fab62000cbd565b5b62000fba8a828b0162000ea4565b965050604088013567ffffffffffffffff81111562000fde5762000fdd62000cbd565b5b62000fec8a828b0162000ea4565b955050606062000fff8a828b0162000d17565b9450506080620010128a828b0162000d17565b93505060a0620010258a828b0162000d17565b92505060c0620010388a828b0162000d17565b91505092959891949750929550565b60006020828403121562001060576200105f62000cb8565b5b6000620010708482850162000cdc565b91505092915050565b60008115159050919050565b620010908162001079565b82525050565b6000602082019050620010ad600083018462001085565b92915050565b600060208284031215620010cc57620010cb62000cb8565b5b6000620010dc8482850162000d17565b91505092915050565b6000620010f28262000bee565b9050919050565b60006200110682620010e5565b9050919050565b6200111881620010f9565b82525050565b60006020820190506200113560008301846200110d565b92915050565b600081519050919050565b600082825260208201905092915050565b60005b83811015620011775780820151818401526020810190506200115a565b8381111562001187576000848401525b50505050565b60006200119a826200113b565b620011a6818562001146565b9350620011b881856020860162001157565b620011c38162000d7f565b840191505092915050565b600060e082019050620011e5600083018a62000c80565b620011f4602083018962000c80565b62001203604083018862000c80565b81810360608301526200121781876200118d565b905081810360808301526200122d81866200118d565b90506200123e60a083018562000f28565b6200124d60c083018462001085565b98975050505050505050565b7f416c726561647920726567697374657265640000000000000000000000000000600082015250565b60006200129160128362001146565b91506200129e8262001259565b602082019050919050565b60006020820190508181036000830152620012c48162001282565b9050919050565b600060a082019050620012e2600083018862000c80565b620012f1602083018762000f28565b62001300604083018662000f28565b6200130f606083018562000f28565b6200131e608083018462000f28565b9695505050505050565b600060a0820190506200133f600083018862000c80565b6200134e602083018762000c80565b6200135d604083018662000c80565b81810360608301526200137181856200118d565b905081810360808301526200138781846200118d565b90509695505050505050565b600081905092915050565b6000620013ab826200113b565b620013b7818562001393565b9350620013c981856020860162001157565b80840191505092915050565b6000620013e382846200139e565b915081905092915050565b7f4e487b7100000000000000000000000000000000000000000000000000000000600052602260045260246000fd5b600060028204905060018216806200143657607f821691505b602082108114156200144d576200144c620013ee565b5b5091905056fe60806040523480156200001157600080fd5b50604051620029fe380380620029fe8339818101604052810190620000379190620003e8565b846000806101000a81548173ffffffffffffffffffffffffffffffffffffffff021916908373ffffffffffffffffffffffffffffffffffffffff16021790555083600160006101000a81548173ffffffffffffffffffffffffffffffffffffffff021916908373ffffffffffffffffffffffffffffffffffffffff16021790555082600260006101000a81548173ffffffffffffffffffffffffffffffffffffffff021916908373ffffffffffffffffffffffffffffffffffffffff16021790555081600390805190602001906200011192919062000136565b5080600490805190602001906200012a92919062000136565b50505050505062000513565b8280546200014490620004dd565b90600052602060002090601f016020900481019282620001685760008555620001b4565b82601f106200018357805160ff1916838001178555620001b4565b82800160010185558215620001b4579182015b82811115620001b357825182559160200191906001019062000196565b5b509050620001c39190620001c7565b5090565b5b80821115620001e2576000816000905550600101620001c8565b5090565b6000604051905090565b600080fd5b600080fd5b600073ffffffffffffffffffffffffffffffffffffffff82169050919050565b60006200022782620001fa565b9050919050565b62000239816200021a565b81146200024557600080fd5b50565b60008151905062000259816200022e565b92915050565b600080fd5b600080fd5b6000601f19601f8301169050919050565b7f4e487b7100000000000000000000000000000000000000000000000000000000600052604160045260246000fd5b620002b48262000269565b810181811067ffffffffffffffff82111715620002d657620002d56200027a565b5b80604052505050565b6000620002eb620001e6565b9050620002f98282620002a9565b919050565b600067ffffffffffffffff8211156200031c576200031b6200027a565b5b620003278262000269565b9050602081019050919050565b60005b838110156200035457808201518184015260208101905062000337565b8381111562000364576000848401525b50505050565b6000620003816200037b84620002fe565b620002df565b905082815260208101848484011115620003a0576200039f62000264565b5b620003ad84828562000334565b509392505050565b600082601f830112620003cd57620003cc6200025f565b5b8151620003df8482602086016200036a565b91505092915050565b600080600080600060a08688031215620004075762000406620001f0565b5b6000620004178882890162000248565b95505060206200042a8882890162000248565b94505060406200043d8882890162000248565b935050606086015167ffffffffffffffff811115620004615762000460620001f5565b5b6200046f88828901620003b5565b925050608086015167ffffffffffffffff811115620004935762000492620001f5565b5b620004a188828901620003b5565b9150509295509295909350565b7f4e487b7100000000000000000000000000000000000000000000000000000000600052602260045260246000fd5b60006002820490506001821680620004f657607f821691505b602082108114156200050d576200050c620004ae565b5b50919050565b6124db80620005236000396000f3fe6080604052600436106100ab5760003560e01c80639ace38c2116100645780639ace38c214610246578063beaa830d1461028a578063cf6a40a9146102c7578063ed653164146102f2578063f05e497b1461031b578063f5ff5c761461034657610103565b8063012f52ee146101085780630298eaec1461014d5780632c8cc4ac1461018a57806368c4ac26146101b55780636d69fcaf146101f25780638da5cb5b1461021b57610103565b36610103573373ffffffffffffffffffffffffffffffffffffffff167fad9df62a81fe6be2a989b7ab92b1322b9405ab1ecf6e3b204539448002d6cf693460006040516100f9929190611897565b60405180910390a2005b600080fd5b34801561011457600080fd5b5061012f600480360381019061012a91906118f6565b610371565b60405161014499989796959493929190611a33565b60405180910390f35b34801561015957600080fd5b50610174600480360381019061016f9190611b58565b6104c4565b6040516101819190611bf2565b60405180910390f35b34801561019657600080fd5b5061019f610950565b6040516101ac9190611c6c565b60405180910390f35b3480156101c157600080fd5b506101dc60048036038101906101d79190611c87565b610976565b6040516101e99190611ccf565b60405180910390f35b3480156101fe57600080fd5b5061021960048036038101906102149190611c87565b610996565b005b34801561022757600080fd5b50610230610a81565b60405161023d9190611cea565b60405180910390f35b34801561025257600080fd5b5061026d600480360381019061026891906118f6565b610aa7565b604051610281989796959493929190611d4d565b60405180910390f35b34801561029657600080fd5b506102b160048036038101906102ac9190611dd9565b610c5c565b6040516102be9190611bf2565b60405180910390f35b3480156102d357600080fd5b506102dc611101565b6040516102e99190611e95565b60405180910390f35b3480156102fe57600080fd5b50610319600480360381019061031491906118f6565b61118f565b005b34801561032757600080fd5b50610330611519565b60405161033d9190611e95565b60405180910390f35b34801561035257600080fd5b5061035b6115a7565b6040516103689190611cea565b60405180910390f35b6006818154811061038157600080fd5b90600052602060002090600902016000915090508060000154908060010160009054906101000a900473ffffffffffffffffffffffffffffffffffffffff16908060020160009054906101000a900473ffffffffffffffffffffffffffffffffffffffff16908060030154908060040160009054906101000a900473ffffffffffffffffffffffffffffffffffffffff169080600501805461042290611ee6565b80601f016020809104026020016040519081016040528092919081815260200182805461044e90611ee6565b801561049b5780601f106104705761010080835404028352916020019161049b565b820191906000526020600020905b81548152906001019060200180831161047e57829003601f168201915b5050505050908060060154908060070160009054906101000a900460ff16908060080154905089565b60008060009054906101000a900473ffffffffffffffffffffffffffffffffffffffff1673ffffffffffffffffffffffffffffffffffffffff163373ffffffffffffffffffffffffffffffffffffffff1614610555576040517f08c379a000000000000000000000000000000000000000000000000000000000815260040161054c90611f64565b60405180910390fd5b600080600260009054906101000a900473ffffffffffffffffffffffffffffffffffffffff1673ffffffffffffffffffffffffffffffffffffffff16634b3a527c60008054906101000a900473ffffffffffffffffffffffffffffffffffffffff168b8b8a8a6040518663ffffffff1660e01b81526004016105db95949392919061200c565b606060405180830381600087803b1580156105f557600080fd5b505af1158015610609573d6000803e3d6000fd5b505050506040513d601f19601f8201168201806040525081019061062d91906120ae565b509150915081801561063d575080155b61067c576040517f08c379a00000000000000000000000000000000000000000000000000000000081526004016106739061214d565b60405180910390fd5b6006805490509250600660405180610120016040528085815260200160008054906101000a900473ffffffffffffffffffffffffffffffffffffffff1673ffffffffffffffffffffffffffffffffffffffff1681526020018b73ffffffffffffffffffffffffffffffffffffffff1681526020018a81526020018973ffffffffffffffffffffffffffffffffffffffff16815260200188888080601f016020809104026020016040519081016040528093929190818152602001838380828437600081840152601f19601f82011690508083019250505050505050815260200186815260200160006004811115610776576107756119bc565b5b81526020014281525090806001815401808255809150506001900390600052602060002090600902016000909190919091506000820151816000015560208201518160010160006101000a81548173ffffffffffffffffffffffffffffffffffffffff021916908373ffffffffffffffffffffffffffffffffffffffff16021790555060408201518160020160006101000a81548173ffffffffffffffffffffffffffffffffffffffff021916908373ffffffffffffffffffffffffffffffffffffffff1602179055506060820151816003015560808201518160040160006101000a81548173ffffffffffffffffffffffffffffffffffffffff021916908373ffffffffffffffffffffffffffffffffffffffff16021790555060a08201518160050190805190602001906108ad92919061179a565b5060c0820151816006015560e08201518160070160006101000a81548160ff021916908360048111156108e3576108e26119bc565b5b0217905550610100820151816008015550508873ffffffffffffffffffffffffffffffffffffffff16837fd3a367dce916d996d5070b966e34d930be36eb1370f69f7d1a3d950eadda3cc68a60405161093c9190611bf2565b60405180910390a350509695505050505050565b600260009054906101000a900473ffffffffffffffffffffffffffffffffffffffff1681565b60076020528060005260406000206000915054906101000a900460ff1681565b600160009054906101000a900473ffffffffffffffffffffffffffffffffffffffff1673ffffffffffffffffffffffffffffffffffffffff163373ffffffffffffffffffffffffffffffffffffffff1614610a26576040517f08c379a0000000000000000000000000000000000000000000000000000000008152600401610a1d906121b9565b60405180910390fd5b6001600760008373ffffffffffffffffffffffffffffffffffffffff1673ffffffffffffffffffffffffffffffffffffffff16815260200190815260200160002060006101000a81548160ff02191690831515021790555050565b600160009054906101000a900473ffffffffffffffffffffffffffffffffffffffff1681565b60058181548110610ab757600080fd5b90600052602060002090600802016000915090508060000154908060010160009054906101000a900473ffffffffffffffffffffffffffffffffffffffff16908060020154908060030160009054906101000a900473ffffffffffffffffffffffffffffffffffffffff1690806004018054610b3290611ee6565b80601f0160208091040260200160405190810160405280929190818152602001828054610b5e90611ee6565b8015610bab5780601f10610b8057610100808354040283529160200191610bab565b820191906000526020600020905b815481529060010190602001808311610b8e57829003601f168201915b505050505090806005018054610bc090611ee6565b80601f0160208091040260200160405190810160405280929190818152602001828054610bec90611ee6565b8015610c395780601f10610c0e57610100808354040283529160200191610c39565b820191906000526020600020905b815481529060010190602001808311610c1c57829003601f168201915b5050505050908060060154908060070160009054906101000a900460ff16905088565b60008060009054906101000a900473ffffffffffffffffffffffffffffffffffffffff1673ffffffffffffffffffffffffffffffffffffffff163373ffffffffffffffffffffffffffffffffffffffff1614610ced576040517f08c379a0000000000000000000000000000000000000000000000000000000008152600401610ce490611f64565b60405180910390fd5b600080600260009054906101000a900473ffffffffffffffffffffffffffffffffffffffff1673ffffffffffffffffffffffffffffffffffffffff16634b3a527c60008054906101000a900473ffffffffffffffffffffffffffffffffffffffff168c8c8b8b8b8b6040518863ffffffff1660e01b8152600401610d7797969594939291906121d9565b606060405180830381600087803b158015610d9157600080fd5b505af1158015610da5573d6000803e3d6000fd5b505050506040513d601f19601f82011682018060405250810190610dc991906120ae565b50915091508015610e7457610e6b8a8a8a8a8a8080601f016020809104026020016040519081016040528093929190818152602001838380828437600081840152601f19601f8201169050808301925050505050505089898080601f016020809104026020016040519081016040528093929190818152602001838380828437600081840152601f19601f8201169050808301925050505050505060006115cb565b925050506110f6565b81610eb4576040517f08c379a0000000000000000000000000000000000000000000000000000000008152600401610eab9061228a565b60405180910390fd5b600073ffffffffffffffffffffffffffffffffffffffff168873ffffffffffffffffffffffffffffffffffffffff161415610f785788471015610f2c576040517f08c379a0000000000000000000000000000000000000000000000000000000008152600401610f23906122f6565b60405180910390fd5b8973ffffffffffffffffffffffffffffffffffffffff166108fc8a9081150290604051600060405180830381858888f19350505050158015610f72573d6000803e3d6000fd5b50611007565b8773ffffffffffffffffffffffffffffffffffffffff1663a9059cbb8b8b6040518363ffffffff1660e01b8152600401610fb3929190612316565b602060405180830381600087803b158015610fcd57600080fd5b505af1158015610fe1573d6000803e3d6000fd5b505050506040513d601f19601f82011682018060405250810190611005919061233f565b505b61109e8a8a8a8a8a8080601f016020809104026020016040519081016040528093929190818152602001838380828437600081840152601f19601f8201169050808301925050505050505089898080601f016020809104026020016040519081016040528093929190818152602001838380828437600081840152601f19601f8201169050808301925050505050505060016115cb565b92508973ffffffffffffffffffffffffffffffffffffffff16837f6953fabd5ab3b7899f327aa5434ec569ed61e749fa6815574aee51d67b3442028b8a8a6040516110eb9392919061236c565b60405180910390a350505b979650505050505050565b6004805461110e90611ee6565b80601f016020809104026020016040519081016040528092919081815260200182805461113a90611ee6565b80156111875780601f1061115c57610100808354040283529160200191611187565b820191906000526020600020905b81548152906001019060200180831161116a57829003601f168201915b505050505081565b60008054906101000a900473ffffffffffffffffffffffffffffffffffffffff1673ffffffffffffffffffffffffffffffffffffffff163373ffffffffffffffffffffffffffffffffffffffff1614806112365750600160009054906101000a900473ffffffffffffffffffffffffffffffffffffffff1673ffffffffffffffffffffffffffffffffffffffff163373ffffffffffffffffffffffffffffffffffffffff16145b611275576040517f08c379a000000000000000000000000000000000000000000000000000000000815260040161126c906123ea565b60405180910390fd5b60006006828154811061128b5761128a61240a565b5b90600052602060002090600902019050600060048111156112af576112ae6119bc565b5b8160070160009054906101000a900460ff1660048111156112d3576112d26119bc565b5b14611313576040517f08c379a000000000000000000000000000000000000000000000000000000000815260040161130a90612485565b60405180910390fd5b60018160070160006101000a81548160ff0219169083600481111561133b5761133a6119bc565b5b0217905550600073ffffffffffffffffffffffffffffffffffffffff168160040160009054906101000a900473ffffffffffffffffffffffffffffffffffffffff1673ffffffffffffffffffffffffffffffffffffffff16141561140d578060020160009054906101000a900473ffffffffffffffffffffffffffffffffffffffff1673ffffffffffffffffffffffffffffffffffffffff166108fc82600301549081150290604051600060405180830381858888f19350505050158015611407573d6000803e3d6000fd5b506114e8565b8060040160009054906101000a900473ffffffffffffffffffffffffffffffffffffffff1673ffffffffffffffffffffffffffffffffffffffff1663a9059cbb8260020160009054906101000a900473ffffffffffffffffffffffffffffffffffffffff1683600301546040518363ffffffff1660e01b8152600401611494929190612316565b602060405180830381600087803b1580156114ae57600080fd5b505af11580156114c2573d6000803e3d6000fd5b505050506040513d601f19601f820116820180604052508101906114e6919061233f565b505b817f69833829d5691ae09424af7d16f73adf033451149ea9c2fc6fcb4c44108eef6760405160405180910390a25050565b6003805461152690611ee6565b80601f016020809104026020016040519081016040528092919081815260200182805461155290611ee6565b801561159f5780601f106115745761010080835404028352916020019161159f565b820191906000526020600020905b81548152906001019060200180831161158257829003601f168201915b505050505081565b60008054906101000a900473ffffffffffffffffffffffffffffffffffffffff1681565b6000600580549050905060056040518061010001604052808381526020018973ffffffffffffffffffffffffffffffffffffffff1681526020018881526020018773ffffffffffffffffffffffffffffffffffffffff16815260200186815260200185815260200142815260200184600481111561164c5761164b6119bc565b5b81525090806001815401808255809150506001900390600052602060002090600802016000909190919091506000820151816000015560208201518160010160006101000a81548173ffffffffffffffffffffffffffffffffffffffff021916908373ffffffffffffffffffffffffffffffffffffffff1602179055506040820151816002015560608201518160030160006101000a81548173ffffffffffffffffffffffffffffffffffffffff021916908373ffffffffffffffffffffffffffffffffffffffff160217905550608082015181600401908051906020019061173692919061179a565b5060a082015181600501908051906020019061175392919061179a565b5060c0820151816006015560e08201518160070160006101000a81548160ff02191690836004811115611789576117886119bc565b5b021790555050509695505050505050565b8280546117a690611ee6565b90600052602060002090601f0160209004810192826117c8576000855561180f565b82601f106117e157805160ff191683800117855561180f565b8280016001018555821561180f579182015b8281111561180e5782518255916020019190600101906117f3565b5b50905061181c9190611820565b5090565b5b80821115611839576000816000905550600101611821565b5090565b6000819050919050565b6118508161183d565b82525050565b600073ffffffffffffffffffffffffffffffffffffffff82169050919050565b600061188182611856565b9050919050565b61189181611876565b82525050565b60006040820190506118ac6000830185611847565b6118b96020830184611888565b9392505050565b600080fd5b600080fd5b6118d38161183d565b81146118de57600080fd5b50565b6000813590506118f0816118ca565b92915050565b60006020828403121561190c5761190b6118c0565b5b600061191a848285016118e1565b91505092915050565b600081519050919050565b600082825260208201905092915050565b60005b8381101561195d578082015181840152602081019050611942565b8381111561196c576000848401525b50505050565b6000601f19601f8301169050919050565b600061198e82611923565b611998818561192e565b93506119a881856020860161193f565b6119b181611972565b840191505092915050565b7f4e487b7100000000000000000000000000000000000000000000000000000000600052602160045260246000fd5b600581106119fc576119fb6119bc565b5b50565b6000819050611a0d826119eb565b919050565b6000611a1d826119ff565b9050919050565b611a2d81611a12565b82525050565b600061012082019050611a49600083018c611847565b611a56602083018b611888565b611a63604083018a611888565b611a706060830189611847565b611a7d6080830188611888565b81810360a0830152611a8f8187611983565b9050611a9e60c0830186611847565b611aab60e0830185611a24565b611ab9610100830184611847565b9a9950505050505050505050565b611ad081611876565b8114611adb57600080fd5b50565b600081359050611aed81611ac7565b92915050565b600080fd5b600080fd5b600080fd5b60008083601f840112611b1857611b17611af3565b5b8235905067ffffffffffffffff811115611b3557611b34611af8565b5b602083019150836001820283011115611b5157611b50611afd565b5b9250929050565b60008060008060008060a08789031215611b7557611b746118c0565b5b6000611b8389828a01611ade565b9650506020611b9489828a016118e1565b9550506040611ba589828a01611ade565b945050606087013567ffffffffffffffff811115611bc657611bc56118c5565b5b611bd289828a01611b02565b93509350506080611be589828a016118e1565b9150509295509295509295565b6000602082019050611c076000830184611847565b92915050565b6000819050919050565b6000611c32611c2d611c2884611856565b611c0d565b611856565b9050919050565b6000611c4482611c17565b9050919050565b6000611c5682611c39565b9050919050565b611c6681611c4b565b82525050565b6000602082019050611c816000830184611c5d565b92915050565b600060208284031215611c9d57611c9c6118c0565b5b6000611cab84828501611ade565b91505092915050565b60008115159050919050565b611cc981611cb4565b82525050565b6000602082019050611ce46000830184611cc0565b92915050565b6000602082019050611cff6000830184611888565b92915050565b60058110611d1657611d156119bc565b5b50565b6000819050611d2782611d05565b919050565b6000611d3782611d19565b9050919050565b611d4781611d2c565b82525050565b600061010082019050611d63600083018b611847565b611d70602083018a611888565b611d7d6040830189611847565b611d8a6060830188611888565b8181036080830152611d9c8187611983565b905081810360a0830152611db08186611983565b9050611dbf60c0830185611847565b611dcc60e0830184611d3e565b9998505050505050505050565b600080600080600080600060a0888a031215611df857611df76118c0565b5b6000611e068a828b01611ade565b9750506020611e178a828b016118e1565b9650506040611e288a828b01611ade565b955050606088013567ffffffffffffffff811115611e4957611e486118c5565b5b611e558a828b01611b02565b9450945050608088013567ffffffffffffffff811115611e7857611e776118c5565b5b611e848a828b01611b02565b925092505092959891949750929550565b60006020820190508181036000830152611eaf8184611983565b905092915050565b7f4e487b7100000000000000000000000000000000000000000000000000000000600052602260045260246000fd5b60006002820490506001821680611efe57607f821691505b60208210811415611f1257611f11611eb7565b5b50919050565b7f4f6e6c79206167656e7400000000000000000000000000000000000000000000600082015250565b6000611f4e600a8361192e565b9150611f5982611f18565b602082019050919050565b60006020820190508181036000830152611f7d81611f41565b9050919050565b7f657363726f770000000000000000000000000000000000000000000000000000600082015250565b6000611fba60068361192e565b9150611fc582611f84565b602082019050919050565b82818337600083830152505050565b6000611feb838561192e565b9350611ff8838584611fd0565b61200183611972565b840190509392505050565b600060a0820190506120216000830188611888565b61202e6020830187611888565b61203b6040830186611847565b818103606083015261204c81611fad565b90508181036080830152612061818486611fdf565b90509695505050505050565b61207681611cb4565b811461208157600080fd5b50565b6000815190506120938161206d565b92915050565b6000815190506120a8816118ca565b92915050565b6000806000606084860312156120c7576120c66118c0565b5b60006120d586828701612084565b93505060206120e686828701612084565b92505060406120f786828701612099565b9150509250925092565b7f457363726f772052657374726963746564000000000000000000000000000000600082015250565b600061213760118361192e565b915061214282612101565b602082019050919050565b600060208201905081810360008301526121668161212a565b9050919050565b7f4f6e6c79206f776e657200000000000000000000000000000000000000000000600082015250565b60006121a3600a8361192e565b91506121ae8261216d565b602082019050919050565b600060208201905081810360008301526121d281612196565b9050919050565b600060a0820190506121ee600083018a611888565b6121fb6020830189611888565b6122086040830188611847565b818103606083015261221b818688611fdf565b90508181036080830152612230818486611fdf565b905098975050505050505050565b7f426c6f636b656400000000000000000000000000000000000000000000000000600082015250565b600061227460078361192e565b915061227f8261223e565b602082019050919050565b600060208201905081810360008301526122a381612267565b9050919050565b7f4c6f772045544800000000000000000000000000000000000000000000000000600082015250565b60006122e060078361192e565b91506122eb826122aa565b602082019050919050565b6000602082019050818103600083015261230f816122d3565b9050919050565b600060408201905061232b6000830185611888565b6123386020830184611847565b9392505050565b600060208284031215612355576123546118c0565b5b600061236384828501612084565b91505092915050565b60006040820190506123816000830186611847565b8181036020830152612394818486611fdf565b9050949350505050565b7f4e6f7420617574686f72697a6564000000000000000000000000000000000000600082015250565b60006123d4600e8361192e565b91506123df8261239e565b602082019050919050565b60006020820190508181036000830152612403816123c7565b9050919050565b7f4e487b7100000000000000000000000000000000000000000000000000000000600052603260045260246000fd5b7f4e6f742061637469766500000000000000000000000000000000000000000000600082015250565b600061246f600a8361192e565b915061247a82612439565b602082019050919050565b6000602082019050818103600083015261249e81612462565b905091905056fea2646970667358221220d9ebb605f3ac9bea6a06f7e0e543abb7535b6521e053632d62f74a451118c84b64736f6c63430008090033a26469706673582212208b9d1bc4069ce1da815558c38d9f3c0ad559ff78f98b2f7b0a83846948d0fc1d64736f6c63430008090033",
  "immutableReferences": {},
  "source": "// SPDX-License-Identifier: MIT\npragma solidity >=0.8.0;\n\nimport './AgentWallet.sol';\nimport './PolicyGuard.sol';\n\ncontract AgentWalletFactory {\n    struct AgentInfo {\n        address walletAddress;\n        address agentAddress;\n        address ownerAddress;\n        string agentDid;\n        string agentType;\n        uint256 createdAt;\n        bool active;\n    }\n\n    address public platformOwner;\n    PolicyGuard public policyGuard;\n    AgentWallet[] public agentWallets;\n    mapping(address => AgentInfo) public agents;\n    mapping(string => address) public didToAgent;\n    mapping(address => address[]) public ownerAgents;\n    mapping(address => bool) public isRegistered;\n\n    event AgentRegistered(address wallet, address agent, address owner, string did, string agentType);\n\n    constructor(address _policyGuard) {\n        platformOwner = msg.sender;\n        policyGuard = PolicyGuard(_policyGuard);\n    }\n\n    function registerAgent(address _agent, string memory _did, string memory _type, uint256 _maxTx, uint256 _maxD, uint256 _maxM, uint256 _hT) external returns (address w) {\n        require(!isRegistered[_agent], 'Already registered');\n        policyGuard.createPolicy(_agent, _maxTx, _maxD, _maxM, _hT);\n        AgentWallet wallet = new AgentWallet(_agent, msg.sender, address(policyGuard), _did, _type);\n        w = address(wallet);\n        agentWallets.push(wallet);\n        agents[_agent] = AgentInfo({ walletAddress: w, agentAddress: _agent, ownerAddress: msg.sender, agentDid: _did, agentType: _type, createdAt: block.timestamp, active: true });\n        didToAgent[_did] = _agent;\n        ownerAgents[msg.sender].push(_agent);\n        isRegistered[_agent] = true;\n        emit AgentRegistered(w, _agent, msg.sender, _did, _type);\n        return w;\n    }\n\n    function getAgentCount() external view returns (uint256) { return agentWallets.length; }\n}",
  "sourcePath": "C:\\Users\\user\\Desktop\\IDQ Wallet\\backend\\contracts\\AgentWalletFactory.sol",
  "compiler": {
    "name": "solc",
    "version": "0.8.9+commit.e5eed63a.Emscripten.clang"
  },
  "schemaVersion": "3.4.16",
  "updatedAt": "2026-04-01T08:45:47.547Z",
  "devdoc": {
    "kind": "dev",
    "methods": {},
    "version": 1
  },
  "userdoc": {
    "kind": "user",
    "methods": {},
    "version": 1
  }
}