{
  "contractName": "PolicyGuard",
  "abi": [
    {
      "inputs": [],
      "stateMutability": "nonpayable",
      "type": "constructor"
    },
    {
      "anonymous": false,
      "inputs": [
        {
          "indexed": true,
          "internalType": "address",
          "name": "agent",
          "type": "address"
        },
        {
          "indexed": false,
          "internalType": "string",
          "name": "reason",
          "type": "string"
        }
      ],
      "name": "AgentFrozen",
      "type": "event"
    },
    {
      "anonymous": false,
      "inputs": [
        {
          "indexed": true,
          "internalType": "address",
          "name": "agent",
          "type": "address"
        }
      ],
      "name": "AgentUnfrozen",
      "type": "event"
    },
    {
      "anonymous": false,
      "inputs": [
        {
          "indexed": true,
          "internalType": "uint256",
          "name": "approvalId",
          "type": "uint256"
        },
        {
          "indexed": true,
          "internalType": "address",
          "name": "agent",
          "type": "address"
        },
        {
          "indexed": false,
          "internalType": "address",
          "name": "to",
          "type": "address"
        },
        {
          "indexed": false,
          "internalType": "uint256",
          "name": "amount",
          "type": "uint256"
        }
      ],
      "name": "HumanApprovalRequired",
      "type": "event"
    },
    {
      "anonymous": false,
      "inputs": [
        {
          "indexed": true,
          "internalType": "uint256",
          "name": "approvalId",
          "type": "uint256"
        },
        {
          "indexed": false,
          "internalType": "bool",
          "name": "approved",
          "type": "bool"
        }
      ],
      "name": "HumanApprovalResolved",
      "type": "event"
    },
    {
      "anonymous": false,
      "inputs": [
        {
          "indexed": true,
          "internalType": "address",
          "name": "agent",
          "type": "address"
        },
        {
          "indexed": true,
          "internalType": "address",
          "name": "owner",
          "type": "address"
        },
        {
          "indexed": false,
          "internalType": "uint256",
          "name": "maxPerTx",
          "type": "uint256"
        },
        {
          "indexed": false,
          "internalType": "uint256",
          "name": "maxDaily",
          "type": "uint256"
        },
        {
          "indexed": false,
          "internalType": "uint256",
          "name": "maxMonthly",
          "type": "uint256"
        }
      ],
      "name": "PolicyCreated",
      "type": "event"
    },
    {
      "anonymous": false,
      "inputs": [
        {
          "indexed": true,
          "internalType": "address",
          "name": "agent",
          "type": "address"
        },
        {
          "indexed": false,
          "internalType": "uint256",
          "name": "maxPerTx",
          "type": "uint256"
        },
        {
          "indexed": false,
          "internalType": "uint256",
          "name": "maxDaily",
          "type": "uint256"
        },
        {
          "indexed": false,
          "internalType": "uint256",
          "name": "maxMonthly",
          "type": "uint256"
        }
      ],
      "name": "PolicyUpdated",
      "type": "event"
    },
    {
      "anonymous": false,
      "inputs": [
        {
          "indexed": true,
          "internalType": "address",
          "name": "agent",
          "type": "address"
        },
        {
          "indexed": true,
          "internalType": "address",
          "name": "recipient",
          "type": "address"
        }
      ],
      "name": "RecipientRemoved",
      "type": "event"
    },
    {
      "anonymous": false,
      "inputs": [
        {
          "indexed": true,
          "internalType": "address",
          "name": "agent",
          "type": "address"
        },
        {
          "indexed": true,
          "internalType": "address",
          "name": "recipient",
          "type": "address"
        }
      ],
      "name": "RecipientWhitelisted",
      "type": "event"
    },
    {
      "anonymous": false,
      "inputs": [
        {
          "indexed": true,
          "internalType": "address",
          "name": "agent",
          "type": "address"
        },
        {
          "indexed": true,
          "internalType": "address",
          "name": "to",
          "type": "address"
        },
        {
          "indexed": false,
          "internalType": "uint256",
          "name": "amount",
          "type": "uint256"
        },
        {
          "indexed": false,
          "internalType": "string",
          "name": "purpose",
          "type": "string"
        }
      ],
      "name": "TransactionApproved",
      "type": "event"
    },
    {
      "anonymous": false,
      "inputs": [
        {
          "indexed": true,
          "internalType": "address",
          "name": "agent",
          "type": "address"
        },
        {
          "indexed": true,
          "internalType": "address",
          "name": "to",
          "type": "address"
        },
        {
          "indexed": false,
          "internalType": "uint256",
          "name": "amount",
          "type": "uint256"
        },
        {
          "indexed": false,
          "internalType": "string",
          "name": "reason",
          "type": "string"
        }
      ],
      "name": "TransactionBlocked",
      "type": "event"
    },
    {
      "inputs": [
        {
          "internalType": "address",
          "name": "",
          "type": "address"
        }
      ],
      "name": "agentOwners",
      "outputs": [
        {
          "internalType": "address",
          "name": "",
          "type": "address"
        }
      ],
      "stateMutability": "view",
      "type": "function"
    },
    {
      "inputs": [
        {
          "internalType": "uint256",
          "name": "",
          "type": "uint256"
        }
      ],
      "name": "auditLog",
      "outputs": [
        {
          "internalType": "address",
          "name": "agent",
          "type": "address"
        },
        {
          "internalType": "address",
          "name": "to",
          "type": "address"
        },
        {
          "internalType": "uint256",
          "name": "amount",
          "type": "uint256"
        },
        {
          "internalType": "string",
          "name": "purpose",
          "type": "string"
        },
        {
          "internalType": "string",
          "name": "memo",
          "type": "string"
        },
        {
          "internalType": "uint256",
          "name": "timestamp",
          "type": "uint256"
        },
        {
          "internalType": "bool",
          "name": "approved",
          "type": "bool"
        },
        {
          "internalType": "bool",
          "name": "requiresHuman",
          "type": "bool"
        }
      ],
      "stateMutability": "view",
      "type": "function"
    },
    {
      "inputs": [
        {
          "internalType": "address",
          "name": "",
          "type": "address"
        }
      ],
      "name": "frozenAgents",
      "outputs": [
        {
          "internalType": "bool",
          "name": "",
          "type": "bool"
        }
      ],
      "stateMutability": "view",
      "type": "function"
    },
    {
      "inputs": [
        {
          "internalType": "uint256",
          "name": "",
          "type": "uint256"
        }
      ],
      "name": "pendingApprovals",
      "outputs": [
        {
          "internalType": "address",
          "name": "agent",
          "type": "address"
        },
        {
          "internalType": "address",
          "name": "to",
          "type": "address"
        },
        {
          "internalType": "uint256",
          "name": "amount",
          "type": "uint256"
        },
        {
          "internalType": "string",
          "name": "purpose",
          "type": "string"
        },
        {
          "internalType": "string",
          "name": "memo",
          "type": "string"
        },
        {
          "internalType": "uint256",
          "name": "requestedAt",
          "type": "uint256"
        },
        {
          "internalType": "bool",
          "name": "resolved",
          "type": "bool"
        },
        {
          "internalType": "bool",
          "name": "approved",
          "type": "bool"
        }
      ],
      "stateMutability": "view",
      "type": "function"
    },
    {
      "inputs": [],
      "name": "platformOwner",
      "outputs": [
        {
          "internalType": "address",
          "name": "",
          "type": "address"
        }
      ],
      "stateMutability": "view",
      "type": "function"
    },
    {
      "inputs": [
        {
          "internalType": "address",
          "name": "",
          "type": "address"
        }
      ],
      "name": "policies",
      "outputs": [
        {
          "internalType": "uint256",
          "name": "maxPerTx",
          "type": "uint256"
        },
        {
          "internalType": "uint256",
          "name": "maxDaily",
          "type": "uint256"
        },
        {
          "internalType": "uint256",
          "name": "maxMonthly",
          "type": "uint256"
        },
        {
          "internalType": "uint256",
          "name": "dailySpent",
          "type": "uint256"
        },
        {
          "internalType": "uint256",
          "name": "monthlySpent",
          "type": "uint256"
        },
        {
          "internalType": "uint256",
          "name": "lastDayReset",
          "type": "uint256"
        },
        {
          "internalType": "uint256",
          "name": "lastMonthReset",
          "type": "uint256"
        },
        {
          "internalType": "uint256",
          "name": "humanApprovalThreshold",
          "type": "uint256"
        },
        {
          "internalType": "bool",
          "name": "isActive",
          "type": "bool"
        }
      ],
      "stateMutability": "view",
      "type": "function"
    },
    {
      "inputs": [
        {
          "internalType": "address",
          "name": "",
          "type": "address"
        }
      ],
      "name": "txCount",
      "outputs": [
        {
          "internalType": "uint256",
          "name": "",
          "type": "uint256"
        }
      ],
      "stateMutability": "view",
      "type": "function"
    },
    {
      "inputs": [
        {
          "internalType": "address",
          "name": "",
          "type": "address"
        },
        {
          "internalType": "address",
          "name": "",
          "type": "address"
        }
      ],
      "name": "whitelistedRecipients",
      "outputs": [
        {
          "internalType": "bool",
          "name": "",
          "type": "bool"
        }
      ],
      "stateMutability": "view",
      "type": "function"
    },
    {
      "inputs": [
        {
          "internalType": "address",
          "name": "_agent",
          "type": "address"
        },
        {
          "internalType": "uint256",
          "name": "_maxPerTx",
          "type": "uint256"
        },
        {
          "internalType": "uint256",
          "name": "_maxDaily",
          "type": "uint256"
        },
        {
          "internalType": "uint256",
          "name": "_maxMonthly",
          "type": "uint256"
        },
        {
          "internalType": "uint256",
          "name": "_humanThreshold",
          "type": "uint256"
        }
      ],
      "name": "createPolicy",
      "outputs": [],
      "stateMutability": "nonpayable",
      "type": "function"
    },
    {
      "inputs": [
        {
          "internalType": "address",
          "name": "_agent",
          "type": "address"
        },
        {
          "internalType": "uint256",
          "name": "_maxPerTx",
          "type": "uint256"
        },
        {
          "internalType": "uint256",
          "name": "_maxDaily",
          "type": "uint256"
        },
        {
          "internalType": "uint256",
          "name": "_maxMonthly",
          "type": "uint256"
        },
        {
          "internalType": "uint256",
          "name": "_humanThreshold",
          "type": "uint256"
        }
      ],
      "name": "updatePolicy",
      "outputs": [],
      "stateMutability": "nonpayable",
      "type": "function"
    },
    {
      "inputs": [
        {
          "internalType": "address",
          "name": "_agent",
          "type": "address"
        },
        {
          "internalType": "address",
          "name": "_recipient",
          "type": "address"
        }
      ],
      "name": "addWhitelistedRecipient",
      "outputs": [],
      "stateMutability": "nonpayable",
      "type": "function"
    },
    {
      "inputs": [
        {
          "internalType": "address",
          "name": "_agent",
          "type": "address"
        },
        {
          "internalType": "address",
          "name": "_recipient",
          "type": "address"
        }
      ],
      "name": "removeWhitelistedRecipient",
      "outputs": [],
      "stateMutability": "nonpayable",
      "type": "function"
    },
    {
      "inputs": [
        {
          "internalType": "address",
          "name": "_agent",
          "type": "address"
        },
        {
          "internalType": "address",
          "name": "_to",
          "type": "address"
        },
        {
          "internalType": "uint256",
          "name": "_amount",
          "type": "uint256"
        },
        {
          "internalType": "string",
          "name": "_purpose",
          "type": "string"
        },
        {
          "internalType": "string",
          "name": "_memo",
          "type": "string"
        }
      ],
      "name": "validateTransaction",
      "outputs": [
        {
          "internalType": "bool",
          "name": "approved",
          "type": "bool"
        },
        {
          "internalType": "bool",
          "name": "requiresHuman",
          "type": "bool"
        },
        {
          "internalType": "uint256",
          "name": "approvalId",
          "type": "uint256"
        }
      ],
      "stateMutability": "nonpayable",
      "type": "function"
    },
    {
      "inputs": [
        {
          "internalType": "uint256",
          "name": "_approvalId",
          "type": "uint256"
        },
        {
          "internalType": "bool",
          "name": "_approve",
          "type": "bool"
        }
      ],
      "name": "resolveApproval",
      "outputs": [],
      "stateMutability": "nonpayable",
      "type": "function"
    },
    {
      "inputs": [
        {
          "internalType": "address",
          "name": "_agent",
          "type": "address"
        },
        {
          "internalType": "string",
          "name": "_reason",
          "type": "string"
        }
      ],
      "name": "freezeAgent",
      "outputs": [],
      "stateMutability": "nonpayable",
      "type": "function"
    },
    {
      "inputs": [
        {
          "internalType": "address",
          "name": "_agent",
          "type": "address"
        }
      ],
      "name": "unfreezeAgent",
      "outputs": [],
      "stateMutability": "nonpayable",
      "type": "function"
    },
    {
      "inputs": [],
      "name": "getAuditLogCount",
      "outputs": [
        {
          "internalType": "uint256",
          "name": "",
          "type": "uint256"
        }
      ],
      "stateMutability": "view",
      "type": "function"
    },
    {
      "inputs": [
        {
          "internalType": "uint256",
          "name": "_offset",
          "type": "uint256"
        },
        {
          "internalType": "uint256",
          "name": "_limit",
          "type": "uint256"
        }
      ],
      "name": "getAuditEntries",
      "outputs": [
        {
          "components": [
            {
              "internalType": "address",
              "name": "agent",
              "type": "address"
            },
            {
              "internalType": "address",
              "name": "to",
              "type": "address"
            },
            {
              "internalType": "uint256",
              "name": "amount",
              "type": "uint256"
            },
            {
              "internalType": "string",
              "name": "purpose",
              "type": "string"
            },
            {
              "internalType": "string",
              "name": "memo",
              "type": "string"
            },
            {
              "internalType": "uint256",
              "name": "timestamp",
              "type": "uint256"
            },
            {
              "internalType": "bool",
              "name": "approved",
              "type": "bool"
            },
            {
              "internalType": "bool",
              "name": "requiresHuman",
              "type": "bool"
            }
          ],
          "internalType": "struct PolicyGuard.AuditEntry[]",
          "name": "entries",
          "type": "tuple[]"
        }
      ],
      "stateMutability": "view",
      "type": "function"
    },
    {
      "inputs": [],
      "name": "getPendingApprovalsCount",
      "outputs": [
        {
          "internalType": "uint256",
          "name": "",
          "type": "uint256"
        }
      ],
      "stateMutability": "view",
      "type": "function"
    },
    {
      "inputs": [
        {
          "internalType": "address",
          "name": "_agent",
          "type": "address"
        }
      ],
      "name": "getAgentStats",
      "outputs": [
        {
          "internalType": "uint256",
          "name": "dailySpent",
          "type": "uint256"
        },
        {
          "internalType": "uint256",
          "name": "monthlySpent",
          "type": "uint256"
        },
        {
          "internalType": "uint256",
          "name": "totalTxCount",
          "type": "uint256"
        },
        {
          "internalType": "bool",
          "name": "isFrozen",
          "type": "bool"
        },
        {
          "internalType": "bool",
          "name": "policyActive",
          "type": "bool"
        }
      ],
      "stateMutability": "view",
      "type": "function"
    }
  ],
  "bytecode": "0x608060405234801561001057600080fd5b50336000806101000a81548173ffffffffffffffffffffffffffffffffffffffff021916908373ffffffffffffffffffffffffffffffffffffffff160217905550613a3c806100606000396000f3fe608060405234801561001057600080fd5b506004361061012c5760003560e01c8063942bba60116100ad578063e45472e611610071578063e45472e6146103a2578063f06e3e24146103be578063f22ac6f1146103dc578063f3f77d5a14610413578063fa66ae041461042f5761012c565b8063942bba60146102d657806399eab89a14610306578063a2e97ab414610322578063b5695b381461033e578063c1258f69146103725761012c565b80635b5d4784116100f45780635b5d4784146101f157806365b33fd114610221578063686b656e1461025157806373576eee1461028857806387c3663b146102a65761012c565b806320e98698146101315780633416f227146101695780634b3a527c146101855780634df8ccb1146101b75780635b26b819146101d5575b600080fd5b61014b60048036038101906101469190612b7f565b61044b565b60405161016099989796959493929190612be0565b60405180910390f35b610183600480360381019061017e9190612cc5565b6104a6565b005b61019f600480360381019061019a9190612d6a565b610b19565b6040516101ae93929190612e26565b60405180910390f35b6101bf6113df565b6040516101cc9190612e6c565b60405180910390f35b6101ef60048036038101906101ea9190612e87565b611403565b005b61020b60048036038101906102069190612f02565b611695565b6040516102189190612f42565b60405180910390f35b61023b60048036038101906102369190612f5d565b6116c4565b60405161024891906131dc565b60405180910390f35b61026b600480360381019061026691906131fe565b6119da565b60405161027f989796959493929190613275565b60405180910390f35b610290611b9c565b60405161029d9190613301565b60405180910390f35b6102c060048036038101906102bb9190612b7f565b611ba9565b6040516102cd9190612e6c565b60405180910390f35b6102f060048036038101906102eb9190612b7f565b611bdc565b6040516102fd9190612f42565b60405180910390f35b610320600480360381019061031b9190612f02565b611bfc565b005b61033c60048036038101906103379190612b7f565b611dbe565b005b61035860048036038101906103539190612b7f565b611f2b565b60405161036995949392919061331c565b60405180910390f35b61038c60048036038101906103879190612b7f565b612032565b6040516103999190613301565b60405180910390f35b6103bc60048036038101906103b79190612f02565b61204a565b005b6103c661220c565b6040516103d39190613301565b60405180910390f35b6103f660048036038101906103f191906131fe565b612219565b60405161040a989796959493929190613275565b60405180910390f35b61042d60048036038101906104289190612e87565b6123db565b005b6104496004803603810190610444919061336f565b61256b565b005b60026020528060005260406000206000915090508060000154908060010154908060020154908060030154908060040154908060050154908060060154908060070154908060080160009054906101000a900460ff16905089565b6000600683815481106104bc576104bb6133cf565b5b906000526020600020906007020190508060060160009054906101000a900460ff161561051e576040517f08c379a00000000000000000000000000000000000000000000000000000000081526004016105159061344a565b60405180910390fd5b600160008260000160009054906101000a900473ffffffffffffffffffffffffffffffffffffffff1673ffffffffffffffffffffffffffffffffffffffff1673ffffffffffffffffffffffffffffffffffffffff16815260200190815260200160002060009054906101000a900473ffffffffffffffffffffffffffffffffffffffff1673ffffffffffffffffffffffffffffffffffffffff163373ffffffffffffffffffffffffffffffffffffffff161480610626575060008054906101000a900473ffffffffffffffffffffffffffffffffffffffff1673ffffffffffffffffffffffffffffffffffffffff163373ffffffffffffffffffffffffffffffffffffffff16145b610665576040517f08c379a000000000000000000000000000000000000000000000000000000000815260040161065c906134b6565b60405180910390fd5b60018160060160006101000a81548160ff021916908315150217905550818160060160016101000a81548160ff02191690831515021790555081156107c4576000600260008360000160009054906101000a900473ffffffffffffffffffffffffffffffffffffffff1673ffffffffffffffffffffffffffffffffffffffff1673ffffffffffffffffffffffffffffffffffffffff168152602001908152602001600020905081600201548160030160008282546107239190613505565b9250508190555081600201548160040160008282546107429190613505565b92505081905550600760008360000160009054906101000a900473ffffffffffffffffffffffffffffffffffffffff1673ffffffffffffffffffffffffffffffffffffffff1673ffffffffffffffffffffffffffffffffffffffff16815260200190815260200160002060008154809291906107bd9061355b565b9190505550505b60056040518061010001604052808360000160009054906101000a900473ffffffffffffffffffffffffffffffffffffffff1673ffffffffffffffffffffffffffffffffffffffff1681526020018360010160009054906101000a900473ffffffffffffffffffffffffffffffffffffffff1673ffffffffffffffffffffffffffffffffffffffff1681526020018360020154815260200183600301805461086b906135d3565b80601f0160208091040260200160405190810160405280929190818152602001828054610897906135d3565b80156108e45780601f106108b9576101008083540402835291602001916108e4565b820191906000526020600020905b8154815290600101906020018083116108c757829003601f168201915b505050505081526020018360040180546108fd906135d3565b80601f0160208091040260200160405190810160405280929190818152602001828054610929906135d3565b80156109765780601f1061094b57610100808354040283529160200191610976565b820191906000526020600020905b81548152906001019060200180831161095957829003601f168201915b50505050508152602001428152602001841515815260200160011515815250908060018154018082558091505060019003906000526020600020906007020160009091909190915060008201518160000160006101000a81548173ffffffffffffffffffffffffffffffffffffffff021916908373ffffffffffffffffffffffffffffffffffffffff16021790555060208201518160010160006101000a81548173ffffffffffffffffffffffffffffffffffffffff021916908373ffffffffffffffffffffffffffffffffffffffff160217905550604082015181600201556060820151816003019080519060200190610a729291906129ff565b506080820151816004019080519060200190610a8f9291906129ff565b5060a0820151816005015560c08201518160060160006101000a81548160ff02191690831515021790555060e08201518160060160016101000a81548160ff0219169083151502179055505050827f9f0238afcf7f7242412bb39cb2eebcc6e3111da443ac2a4368110312d698dbf083604051610b0c9190612f42565b60405180910390a2505050565b600080600089600360008273ffffffffffffffffffffffffffffffffffffffff1673ffffffffffffffffffffffffffffffffffffffff16815260200190815260200160002060009054906101000a900460ff1615610bac576040517f08c379a0000000000000000000000000000000000000000000000000000000008152600401610ba390613651565b60405180910390fd5b8a600260008273ffffffffffffffffffffffffffffffffffffffff1673ffffffffffffffffffffffffffffffffffffffff16815260200190815260200160002060080160009054906101000a900460ff16610c3c576040517f08c379a0000000000000000000000000000000000000000000000000000000008152600401610c33906136bd565b60405180910390fd5b6000600260008e73ffffffffffffffffffffffffffffffffffffffff1673ffffffffffffffffffffffffffffffffffffffff1681526020019081526020016000209050610c888161273d565b80600001548b1115610ce657610cd58d8d8d6040518060400160405280601481526020017f45786365656473207065722d7478206c696d69740000000000000000000000008152506127a8565b6000806000955095509550506113d0565b80600101548b8260030154610cfb9190613505565b1115610d5357610d428d8d8d6040518060400160405280601381526020017f45786365656473206461696c79206c696d6974000000000000000000000000008152506127a8565b6000806000955095509550506113d0565b80600201548b8260040154610d689190613505565b1115610dc057610daf8d8d8d6040518060400160405280601581526020017f45786365656473206d6f6e74686c79206c696d697400000000000000000000008152506127a8565b6000806000955095509550506113d0565b80600701548b118015610dd7575060008160070154115b156110925760066040518061010001604052808f73ffffffffffffffffffffffffffffffffffffffff1681526020018e73ffffffffffffffffffffffffffffffffffffffff1681526020018d81526020018c8c8080601f016020809104026020016040519081016040528093929190818152602001838380828437600081840152601f19601f8201169050808301925050505050505081526020018a8a8080601f016020809104026020016040519081016040528093929190818152602001838380828437600081840152601f19601f82011690508083019250505050505050815260200142815260200160001515815260200160001515815250908060018154018082558091505060019003906000526020600020906007020160009091909190915060008201518160000160006101000a81548173ffffffffffffffffffffffffffffffffffffffff021916908373ffffffffffffffffffffffffffffffffffffffff16021790555060208201518160010160006101000a81548173ffffffffffffffffffffffffffffffffffffffff021916908373ffffffffffffffffffffffffffffffffffffffff160217905550604082015181600201556060820151816003019080519060200190610faf9291906129ff565b506080820151816004019080519060200190610fcc9291906129ff565b5060a0820151816005015560c08201518160060160006101000a81548160ff02191690831515021790555060e08201518160060160016101000a81548160ff02191690831515021790555050506000600160068054905061102d91906136dd565b90508d73ffffffffffffffffffffffffffffffffffffffff16817fcaadeb789eec44c99d08c9eeeba5fff0d17bd302169b7cd02ac22481336505d78f8f604051611078929190613711565b60405180910390a3600060018296509650965050506113d0565b8a8160030160008282546110a69190613505565b925050819055508a8160040160008282546110c19190613505565b92505081905550600760008e73ffffffffffffffffffffffffffffffffffffffff1673ffffffffffffffffffffffffffffffffffffffff16815260200190815260200160002060008154809291906111189061355b565b919050555060056040518061010001604052808f73ffffffffffffffffffffffffffffffffffffffff1681526020018e73ffffffffffffffffffffffffffffffffffffffff1681526020018d81526020018c8c8080601f016020809104026020016040519081016040528093929190818152602001838380828437600081840152601f19601f8201169050808301925050505050505081526020018a8a8080601f016020809104026020016040519081016040528093929190818152602001838380828437600081840152601f19601f82011690508083019250505050505050815260200142815260200160011515815260200160001515815250908060018154018082558091505060019003906000526020600020906007020160009091909190915060008201518160000160006101000a81548173ffffffffffffffffffffffffffffffffffffffff021916908373ffffffffffffffffffffffffffffffffffffffff16021790555060208201518160010160006101000a81548173ffffffffffffffffffffffffffffffffffffffff021916908373ffffffffffffffffffffffffffffffffffffffff1602179055506040820151816002015560608201518160030190805190602001906112f09291906129ff565b50608082015181600401908051906020019061130d9291906129ff565b5060a0820151816005015560c08201518160060160006101000a81548160ff02191690831515021790555060e08201518160060160016101000a81548160ff02191690831515021790555050508b73ffffffffffffffffffffffffffffffffffffffff168d73ffffffffffffffffffffffffffffffffffffffff167fa5102beb2e005fdd2745e00a3b27c5e68a7f37d602c525f2b557ab918bebd7438d8d8d6040516113bb93929190613776565b60405180910390a36001600080955095509550505b50509750975097945050505050565b60008054906101000a900473ffffffffffffffffffffffffffffffffffffffff1681565b600260008673ffffffffffffffffffffffffffffffffffffffff1673ffffffffffffffffffffffffffffffffffffffff16815260200190815260200160002060080160009054906101000a900460ff1615611493576040517f08c379a000000000000000000000000000000000000000000000000000000000815260040161148a906137f4565b60405180910390fd5b33600160008773ffffffffffffffffffffffffffffffffffffffff1673ffffffffffffffffffffffffffffffffffffffff16815260200190815260200160002060006101000a81548173ffffffffffffffffffffffffffffffffffffffff021916908373ffffffffffffffffffffffffffffffffffffffff1602179055506040518061012001604052808581526020018481526020018381526020016000815260200160008152602001620151804261154c9190613843565b815260200162278d00426115609190613843565b815260200182815260200160011515815250600260008773ffffffffffffffffffffffffffffffffffffffff1673ffffffffffffffffffffffffffffffffffffffff168152602001908152602001600020600082015181600001556020820151816001015560408201518160020155606082015181600301556080820151816004015560a0820151816005015560c0820151816006015560e082015181600701556101008201518160080160006101000a81548160ff0219169083151502179055509050503373ffffffffffffffffffffffffffffffffffffffff168573ffffffffffffffffffffffffffffffffffffffff167fc2d6fcdbe33e50ad151f78302184bf076c800a81677c1ffbd232f0807dfb13f186868660405161168693929190613874565b60405180910390a35050505050565b60046020528160005260406000206020528060005260406000206000915091509054906101000a900460ff1681565b606060006005805490509050600084826116de91906136dd565b9050838111156116ec578390505b8067ffffffffffffffff811115611706576117056138ab565b5b60405190808252806020026020018201604052801561173f57816020015b61172c612a85565b8152602001906001900390816117245790505b50925060005b818110156119d1576005818761175b9190613505565b8154811061176c5761176b6133cf565b5b9060005260206000209060070201604051806101000160405290816000820160009054906101000a900473ffffffffffffffffffffffffffffffffffffffff1673ffffffffffffffffffffffffffffffffffffffff1673ffffffffffffffffffffffffffffffffffffffff1681526020016001820160009054906101000a900473ffffffffffffffffffffffffffffffffffffffff1673ffffffffffffffffffffffffffffffffffffffff1673ffffffffffffffffffffffffffffffffffffffff1681526020016002820154815260200160038201805461184c906135d3565b80601f0160208091040260200160405190810160405280929190818152602001828054611878906135d3565b80156118c55780601f1061189a576101008083540402835291602001916118c5565b820191906000526020600020905b8154815290600101906020018083116118a857829003601f168201915b505050505081526020016004820180546118de906135d3565b80601f016020809104026020016040519081016040528092919081815260200182805461190a906135d3565b80156119575780601f1061192c57610100808354040283529160200191611957565b820191906000526020600020905b81548152906001019060200180831161193a57829003601f168201915b50505050508152602001600582015481526020016006820160009054906101000a900460ff161515151581526020016006820160019054906101000a900460ff1615151515815250508482815181106119b3576119b26133cf565b5b602002602001018190525080806119c99061355b565b915050611745565b50505092915050565b600681815481106119ea57600080fd5b90600052602060002090600702016000915090508060000160009054906101000a900473ffffffffffffffffffffffffffffffffffffffff16908060010160009054906101000a900473ffffffffffffffffffffffffffffffffffffffff1690806002015490806003018054611a5f906135d3565b80601f0160208091040260200160405190810160405280929190818152602001828054611a8b906135d3565b8015611ad85780601f10611aad57610100808354040283529160200191611ad8565b820191906000526020600020905b815481529060010190602001808311611abb57829003601f168201915b505050505090806004018054611aed906135d3565b80601f0160208091040260200160405190810160405280929190818152602001828054611b19906135d3565b8015611b665780601f10611b3b57610100808354040283529160200191611b66565b820191906000526020600020905b815481529060010190602001808311611b4957829003601f168201915b5050505050908060050154908060060160009054906101000a900460ff16908060060160019054906101000a900460ff16905088565b6000600580549050905090565b60016020528060005260406000206000915054906101000a900473ffffffffffffffffffffffffffffffffffffffff1681565b60036020528060005260406000206000915054906101000a900460ff1681565b81600160008273ffffffffffffffffffffffffffffffffffffffff1673ffffffffffffffffffffffffffffffffffffffff16815260200190815260200160002060009054906101000a900473ffffffffffffffffffffffffffffffffffffffff1673ffffffffffffffffffffffffffffffffffffffff163373ffffffffffffffffffffffffffffffffffffffff1614611cca576040517f08c379a0000000000000000000000000000000000000000000000000000000008152600401611cc190613926565b60405180910390fd5b6001600460008573ffffffffffffffffffffffffffffffffffffffff1673ffffffffffffffffffffffffffffffffffffffff16815260200190815260200160002060008473ffffffffffffffffffffffffffffffffffffffff1673ffffffffffffffffffffffffffffffffffffffff16815260200190815260200160002060006101000a81548160ff0219169083151502179055508173ffffffffffffffffffffffffffffffffffffffff168373ffffffffffffffffffffffffffffffffffffffff167f0e66ee1ef1022094279fd124206bf98bd4964ca6f3a82feda4308abdf2bcd68a60405160405180910390a3505050565b80600160008273ffffffffffffffffffffffffffffffffffffffff1673ffffffffffffffffffffffffffffffffffffffff16815260200190815260200160002060009054906101000a900473ffffffffffffffffffffffffffffffffffffffff1673ffffffffffffffffffffffffffffffffffffffff163373ffffffffffffffffffffffffffffffffffffffff1614611e8c576040517f08c379a0000000000000000000000000000000000000000000000000000000008152600401611e8390613926565b60405180910390fd5b6000600360008473ffffffffffffffffffffffffffffffffffffffff1673ffffffffffffffffffffffffffffffffffffffff16815260200190815260200160002060006101000a81548160ff0219169083151502179055508173ffffffffffffffffffffffffffffffffffffffff167fa2671ddfcae8e909ada448839621cacd285875ccc6f146751e3e1bc4f2e1e9cd60405160405180910390a25050565b600080600080600080600260008873ffffffffffffffffffffffffffffffffffffffff1673ffffffffffffffffffffffffffffffffffffffff168152602001908152602001600020905080600301548160040154600760008a73ffffffffffffffffffffffffffffffffffffffff1673ffffffffffffffffffffffffffffffffffffffff16815260200190815260200160002054600360008b73ffffffffffffffffffffffffffffffffffffffff1673ffffffffffffffffffffffffffffffffffffffff16815260200190815260200160002060009054906101000a900460ff168460080160009054906101000a900460ff16955095509550955095505091939590929450565b60076020528060005260406000206000915090505481565b81600160008273ffffffffffffffffffffffffffffffffffffffff1673ffffffffffffffffffffffffffffffffffffffff16815260200190815260200160002060009054906101000a900473ffffffffffffffffffffffffffffffffffffffff1673ffffffffffffffffffffffffffffffffffffffff163373ffffffffffffffffffffffffffffffffffffffff1614612118576040517f08c379a000000000000000000000000000000000000000000000000000000000815260040161210f90613926565b60405180910390fd5b6000600460008573ffffffffffffffffffffffffffffffffffffffff1673ffffffffffffffffffffffffffffffffffffffff16815260200190815260200160002060008473ffffffffffffffffffffffffffffffffffffffff1673ffffffffffffffffffffffffffffffffffffffff16815260200190815260200160002060006101000a81548160ff0219169083151502179055508173ffffffffffffffffffffffffffffffffffffffff168373ffffffffffffffffffffffffffffffffffffffff167f6e63003c7a0ad5718ea27734884d2c2221e14cd1b4e6d559b00734dd34c8af9c60405160405180910390a3505050565b6000600680549050905090565b6005818154811061222957600080fd5b90600052602060002090600702016000915090508060000160009054906101000a900473ffffffffffffffffffffffffffffffffffffffff16908060010160009054906101000a900473ffffffffffffffffffffffffffffffffffffffff169080600201549080600301805461229e906135d3565b80601f01602080910402602001604051908101604052809291908181526020018280546122ca906135d3565b80156123175780601f106122ec57610100808354040283529160200191612317565b820191906000526020600020905b8154815290600101906020018083116122fa57829003601f168201915b50505050509080600401805461232c906135d3565b80601f0160208091040260200160405190810160405280929190818152602001828054612358906135d3565b80156123a55780601f1061237a576101008083540402835291602001916123a5565b820191906000526020600020905b81548152906001019060200180831161238857829003601f168201915b5050505050908060050154908060060160009054906101000a900460ff16908060060160019054906101000a900460ff16905088565b84600160008273ffffffffffffffffffffffffffffffffffffffff1673ffffffffffffffffffffffffffffffffffffffff16815260200190815260200160002060009054906101000a900473ffffffffffffffffffffffffffffffffffffffff1673ffffffffffffffffffffffffffffffffffffffff163373ffffffffffffffffffffffffffffffffffffffff16146124a9576040517f08c379a00000000000000000000000000000000000000000000000000000000081526004016124a090613926565b60405180910390fd5b6000600260008873ffffffffffffffffffffffffffffffffffffffff1673ffffffffffffffffffffffffffffffffffffffff16815260200190815260200160002090508581600001819055508481600101819055508381600201819055508281600701819055508673ffffffffffffffffffffffffffffffffffffffff167fdc1c0a36a9397f21928a26c574f2bd3ca4201f14c93aae46b5da17a76ebda78787878760405161255a93929190613874565b60405180910390a250505050505050565b82600160008273ffffffffffffffffffffffffffffffffffffffff1673ffffffffffffffffffffffffffffffffffffffff16815260200190815260200160002060009054906101000a900473ffffffffffffffffffffffffffffffffffffffff1673ffffffffffffffffffffffffffffffffffffffff163373ffffffffffffffffffffffffffffffffffffffff161480612650575060008054906101000a900473ffffffffffffffffffffffffffffffffffffffff1673ffffffffffffffffffffffffffffffffffffffff163373ffffffffffffffffffffffffffffffffffffffff16145b61268f576040517f08c379a000000000000000000000000000000000000000000000000000000000815260040161268690613992565b60405180910390fd5b6001600360008673ffffffffffffffffffffffffffffffffffffffff1673ffffffffffffffffffffffffffffffffffffffff16815260200190815260200160002060006101000a81548160ff0219169083151502179055508373ffffffffffffffffffffffffffffffffffffffff167f11d38317fab9c45995e5f43f7cd67d8d122077a1f2ee4babab7e38d84472cc53848460405161272f9291906139b2565b60405180910390a250505050565b6000620151804261274e9190613843565b9050600062278d00426127619190613843565b9050826005015482111561278357600083600301819055508183600501819055505b82600601548111156127a357600083600401819055508083600601819055505b505050565b60056040518061010001604052808673ffffffffffffffffffffffffffffffffffffffff1681526020018573ffffffffffffffffffffffffffffffffffffffff1681526020018481526020018381526020016040518060400160405280600781526020017f424c4f434b454400000000000000000000000000000000000000000000000000815250815260200142815260200160001515815260200160001515815250908060018154018082558091505060019003906000526020600020906007020160009091909190915060008201518160000160006101000a81548173ffffffffffffffffffffffffffffffffffffffff021916908373ffffffffffffffffffffffffffffffffffffffff16021790555060208201518160010160006101000a81548173ffffffffffffffffffffffffffffffffffffffff021916908373ffffffffffffffffffffffffffffffffffffffff1602179055506040820151816002015560608201518160030190805190602001906129289291906129ff565b5060808201518160040190805190602001906129459291906129ff565b5060a0820151816005015560c08201518160060160006101000a81548160ff02191690831515021790555060e08201518160060160016101000a81548160ff02191690831515021790555050508273ffffffffffffffffffffffffffffffffffffffff168473ffffffffffffffffffffffffffffffffffffffff167f9dc17cb1f159007b508bb3ae36def7eef1c3bb6db8d5b1de9af9c5b912b9afae84846040516129f19291906139d6565b60405180910390a350505050565b828054612a0b906135d3565b90600052602060002090601f016020900481019282612a2d5760008555612a74565b82601f10612a4657805160ff1916838001178555612a74565b82800160010185558215612a74579182015b82811115612a73578251825591602001919060010190612a58565b5b509050612a819190612afa565b5090565b604051806101000160405280600073ffffffffffffffffffffffffffffffffffffffff168152602001600073ffffffffffffffffffffffffffffffffffffffff168152602001600081526020016060815260200160608152602001600081526020016000151581526020016000151581525090565b5b80821115612b13576000816000905550600101612afb565b5090565b600080fd5b600080fd5b600073ffffffffffffffffffffffffffffffffffffffff82169050919050565b6000612b4c82612b21565b9050919050565b612b5c81612b41565b8114612b6757600080fd5b50565b600081359050612b7981612b53565b92915050565b600060208284031215612b9557612b94612b17565b5b6000612ba384828501612b6a565b91505092915050565b6000819050919050565b612bbf81612bac565b82525050565b60008115159050919050565b612bda81612bc5565b82525050565b600061012082019050612bf6600083018c612bb6565b612c03602083018b612bb6565b612c10604083018a612bb6565b612c1d6060830189612bb6565b612c2a6080830188612bb6565b612c3760a0830187612bb6565b612c4460c0830186612bb6565b612c5160e0830185612bb6565b612c5f610100830184612bd1565b9a9950505050505050505050565b612c7681612bac565b8114612c8157600080fd5b50565b600081359050612c9381612c6d565b92915050565b612ca281612bc5565b8114612cad57600080fd5b50565b600081359050612cbf81612c99565b92915050565b60008060408385031215612cdc57612cdb612b17565b5b6000612cea85828601612c84565b9250506020612cfb85828601612cb0565b9150509250929050565b600080fd5b600080fd5b600080fd5b60008083601f840112612d2a57612d29612d05565b5b8235905067ffffffffffffffff811115612d4757612d46612d0a565b5b602083019150836001820283011115612d6357612d62612d0f565b5b9250929050565b600080600080600080600060a0888a031215612d8957612d88612b17565b5b6000612d978a828b01612b6a565b9750506020612da88a828b01612b6a565b9650506040612db98a828b01612c84565b955050606088013567ffffffffffffffff811115612dda57612dd9612b1c565b5b612de68a828b01612d14565b9450945050608088013567ffffffffffffffff811115612e0957612e08612b1c565b5b612e158a828b01612d14565b925092505092959891949750929550565b6000606082019050612e3b6000830186612bd1565b612e486020830185612bd1565b612e556040830184612bb6565b949350505050565b612e6681612b41565b82525050565b6000602082019050612e816000830184612e5d565b92915050565b600080600080600060a08688031215612ea357612ea2612b17565b5b6000612eb188828901612b6a565b9550506020612ec288828901612c84565b9450506040612ed388828901612c84565b9350506060612ee488828901612c84565b9250506080612ef588828901612c84565b9150509295509295909350565b60008060408385031215612f1957612f18612b17565b5b6000612f2785828601612b6a565b9250506020612f3885828601612b6a565b9150509250929050565b6000602082019050612f576000830184612bd1565b92915050565b60008060408385031215612f7457612f73612b17565b5b6000612f8285828601612c84565b9250506020612f9385828601612c84565b9150509250929050565b600081519050919050565b600082825260208201905092915050565b6000819050602082019050919050565b612fd281612b41565b82525050565b612fe181612bac565b82525050565b600081519050919050565b600082825260208201905092915050565b60005b83811015613021578082015181840152602081019050613006565b83811115613030576000848401525b50505050565b6000601f19601f8301169050919050565b600061305282612fe7565b61305c8185612ff2565b935061306c818560208601613003565b61307581613036565b840191505092915050565b61308981612bc5565b82525050565b6000610100830160008301516130a86000860182612fc9565b5060208301516130bb6020860182612fc9565b5060408301516130ce6040860182612fd8565b50606083015184820360608601526130e68282613047565b915050608083015184820360808601526131008282613047565b91505060a083015161311560a0860182612fd8565b5060c083015161312860c0860182613080565b5060e083015161313b60e0860182613080565b508091505092915050565b6000613152838361308f565b905092915050565b6000602082019050919050565b600061317282612f9d565b61317c8185612fa8565b93508360208202850161318e85612fb9565b8060005b858110156131ca57848403895281516131ab8582613146565b94506131b68361315a565b925060208a01995050600181019050613192565b50829750879550505050505092915050565b600060208201905081810360008301526131f68184613167565b905092915050565b60006020828403121561321457613213612b17565b5b600061322284828501612c84565b91505092915050565b600082825260208201905092915050565b600061324782612fe7565b613251818561322b565b9350613261818560208601613003565b61326a81613036565b840191505092915050565b60006101008201905061328b600083018b612e5d565b613298602083018a612e5d565b6132a56040830189612bb6565b81810360608301526132b7818861323c565b905081810360808301526132cb818761323c565b90506132da60a0830186612bb6565b6132e760c0830185612bd1565b6132f460e0830184612bd1565b9998505050505050505050565b60006020820190506133166000830184612bb6565b92915050565b600060a0820190506133316000830188612bb6565b61333e6020830187612bb6565b61334b6040830186612bb6565b6133586060830185612bd1565b6133656080830184612bd1565b9695505050505050565b60008060006040848603121561338857613387612b17565b5b600061339686828701612b6a565b935050602084013567ffffffffffffffff8111156133b7576133b6612b1c565b5b6133c386828701612d14565b92509250509250925092565b7f4e487b7100000000000000000000000000000000000000000000000000000000600052603260045260246000fd5b7f416c7265616479207265736f6c76656400000000000000000000000000000000600082015250565b600061343460108361322b565b915061343f826133fe565b602082019050919050565b6000602082019050818103600083015261346381613427565b9050919050565b7f4e6f7420617574686f72697a6564000000000000000000000000000000000000600082015250565b60006134a0600e8361322b565b91506134ab8261346a565b602082019050919050565b600060208201905081810360008301526134cf81613493565b9050919050565b7f4e487b7100000000000000000000000000000000000000000000000000000000600052601160045260246000fd5b600061351082612bac565b915061351b83612bac565b9250827fffffffffffffffffffffffffffffffffffffffffffffffffffffffffffffffff038211156135505761354f6134d6565b5b828201905092915050565b600061356682612bac565b91507fffffffffffffffffffffffffffffffffffffffffffffffffffffffffffffffff821415613599576135986134d6565b5b600182019050919050565b7f4e487b7100000000000000000000000000000000000000000000000000000000600052602260045260246000fd5b600060028204905060018216806135eb57607f821691505b602082108114156135ff576135fe6135a4565b5b50919050565b7f4167656e742069732066726f7a656e0000000000000000000000000000000000600082015250565b600061363b600f8361322b565b915061364682613605565b602082019050919050565b6000602082019050818103600083015261366a8161362e565b9050919050565b7f4e6f2061637469766520706f6c69637900000000000000000000000000000000600082015250565b60006136a760108361322b565b91506136b282613671565b602082019050919050565b600060208201905081810360008301526136d68161369a565b9050919050565b60006136e882612bac565b91506136f383612bac565b925082821015613706576137056134d6565b5b828203905092915050565b60006040820190506137266000830185612e5d565b6137336020830184612bb6565b9392505050565b82818337600083830152505050565b6000613755838561322b565b935061376283858461373a565b61376b83613036565b840190509392505050565b600060408201905061378b6000830186612bb6565b818103602083015261379e818486613749565b9050949350505050565b7f506f6c69637920616c7265616479206578697374730000000000000000000000600082015250565b60006137de60158361322b565b91506137e9826137a8565b602082019050919050565b6000602082019050818103600083015261380d816137d1565b9050919050565b7f4e487b7100000000000000000000000000000000000000000000000000000000600052601260045260246000fd5b600061384e82612bac565b915061385983612bac565b92508261386957613868613814565b5b828204905092915050565b60006060820190506138896000830186612bb6565b6138966020830185612bb6565b6138a36040830184612bb6565b949350505050565b7f4e487b7100000000000000000000000000000000000000000000000000000000600052604160045260246000fd5b7f4f6e6c79206167656e74206f776e657200000000000000000000000000000000600082015250565b600061391060108361322b565b915061391b826138da565b602082019050919050565b6000602082019050818103600083015261393f81613903565b9050919050565b7f4f6e6c79206167656e74206f776e6572206f7220706c6174666f726d00000000600082015250565b600061397c601c8361322b565b915061398782613946565b602082019050919050565b600060208201905081810360008301526139ab8161396f565b9050919050565b600060208201905081810360008301526139cd818486613749565b90509392505050565b60006040820190506139eb6000830185612bb6565b81810360208301526139fd818461323c565b9050939250505056fea26469706673582212203324ade319af59bb234b9563ecfe20a2a970ccf995720dc8755ce163d96c02b664736f6c63430008090033",
  "immutableReferences": {},
  "source": "// SPDX-License-Identifier: MIT\npragma solidity >=0.8.0;\n\ncontract PolicyGuard {\n    struct SpendingPolicy {\n        uint256 maxPerTx;\n        uint256 maxDaily;\n        uint256 maxMonthly;\n        uint256 dailySpent;\n        uint256 monthlySpent;\n        uint256 lastDayReset;\n        uint256 lastMonthReset;\n        uint256 humanApprovalThreshold;\n        bool isActive;\n    }\n\n    struct AuditEntry {\n        address agent;\n        address to;\n        uint256 amount;\n        string purpose;\n        string memo;\n        uint256 timestamp;\n        bool approved;\n        bool requiresHuman;\n    }\n\n    struct PendingApproval {\n        address agent;\n        address to;\n        uint256 amount;\n        string purpose;\n        string memo;\n        uint256 requestedAt;\n        bool resolved;\n        bool approved;\n    }\n\n    address public platformOwner;\n    mapping(address => address) public agentOwners;\n    mapping(address => SpendingPolicy) public policies;\n    mapping(address => bool) public frozenAgents;\n    mapping(address => mapping(address => bool)) public whitelistedRecipients;\n    AuditEntry[] public auditLog;\n    PendingApproval[] public pendingApprovals;\n    mapping(address => uint256) public txCount;\n\n    event PolicyCreated(address indexed agent, address indexed owner, uint256 maxPerTx, uint256 maxDaily, uint256 maxMonthly);\n    event PolicyUpdated(address indexed agent, uint256 maxPerTx, uint256 maxDaily, uint256 maxMonthly);\n    event AgentFrozen(address indexed agent, string reason);\n    event AgentUnfrozen(address indexed agent);\n    event TransactionApproved(address indexed agent, address indexed to, uint256 amount, string purpose);\n    event TransactionBlocked(address indexed agent, address indexed to, uint256 amount, string reason);\n    event HumanApprovalRequired(uint256 indexed approvalId, address indexed agent, address to, uint256 amount);\n    event HumanApprovalResolved(uint256 indexed approvalId, bool approved);\n    event RecipientWhitelisted(address indexed agent, address indexed recipient);\n    event RecipientRemoved(address indexed agent, address indexed recipient);\n\n    modifier onlyPlatformOwner() { require(msg.sender == platformOwner, 'Only platform owner'); _; }\n    modifier onlyAgentOwner(address _agent) { require(msg.sender == agentOwners[_agent], 'Only agent owner'); _; }\n    modifier onlyAgentOwnerOrPlatform(address _agent) { require(msg.sender == agentOwners[_agent] || msg.sender == platformOwner, 'Only agent owner or platform'); _; }\n    modifier notFrozen(address _agent) { require(!frozenAgents[_agent], 'Agent is frozen'); _; }\n    modifier hasActivePolicy(address _agent) { require(policies[_agent].isActive, 'No active policy'); _; }\n\n    constructor() { platformOwner = msg.sender; }\n\n    function createPolicy(address _agent, uint256 _maxPerTx, uint256 _maxDaily, uint256 _maxMonthly, uint256 _humanThreshold) external {\n        require(!policies[_agent].isActive, 'Policy already exists');\n        agentOwners[_agent] = msg.sender;\n        policies[_agent] = SpendingPolicy({\n            maxPerTx: _maxPerTx,\n            maxDaily: _maxDaily,\n            maxMonthly: _maxMonthly,\n            dailySpent: 0,\n            monthlySpent: 0,\n            lastDayReset: block.timestamp / 1 days,\n            lastMonthReset: block.timestamp / 30 days,\n            humanApprovalThreshold: _humanThreshold,\n            isActive: true\n        });\n        emit PolicyCreated(_agent, msg.sender, _maxPerTx, _maxDaily, _maxMonthly);\n    }\n\n    function updatePolicy(address _agent, uint256 _maxPerTx, uint256 _maxDaily, uint256 _maxMonthly, uint256 _humanThreshold) external onlyAgentOwner(_agent) {\n        SpendingPolicy storage p = policies[_agent];\n        p.maxPerTx = _maxPerTx;\n        p.maxDaily = _maxDaily;\n        p.maxMonthly = _maxMonthly;\n        p.humanApprovalThreshold = _humanThreshold;\n        emit PolicyUpdated(_agent, _maxPerTx, _maxDaily, _maxMonthly);\n    }\n\n    function addWhitelistedRecipient(address _agent, address _recipient) external onlyAgentOwner(_agent) { whitelistedRecipients[_agent][_recipient] = true; emit RecipientWhitelisted(_agent, _recipient); }\n    function removeWhitelistedRecipient(address _agent, address _recipient) external onlyAgentOwner(_agent) { whitelistedRecipients[_agent][_recipient] = false; emit RecipientRemoved(_agent, _recipient); }\n\n    function validateTransaction(address _agent, address _to, uint256 _amount, string calldata _purpose, string calldata _memo) external notFrozen(_agent) hasActivePolicy(_agent) returns (bool approved, bool requiresHuman, uint256 approvalId) {\n        SpendingPolicy storage p = policies[_agent];\n        _resetCountersIfNeeded(p);\n        if (_amount > p.maxPerTx) { _logBlocked(_agent, _to, _amount, 'Exceeds per-tx limit'); return (false, false, 0); }\n        if (p.dailySpent + _amount > p.maxDaily) { _logBlocked(_agent, _to, _amount, 'Exceeds daily limit'); return (false, false, 0); }\n        if (p.monthlySpent + _amount > p.maxMonthly) { _logBlocked(_agent, _to, _amount, 'Exceeds monthly limit'); return (false, false, 0); }\n        if (_amount > p.humanApprovalThreshold && p.humanApprovalThreshold > 0) {\n            pendingApprovals.push(PendingApproval({ agent: _agent, to: _to, amount: _amount, purpose: _purpose, memo: _memo, requestedAt: block.timestamp, resolved: false, approved: false }));\n            uint256 id = pendingApprovals.length - 1;\n            emit HumanApprovalRequired(id, _agent, _to, _amount);\n            return (false, true, id);\n        }\n        p.dailySpent += _amount;\n        p.monthlySpent += _amount;\n        txCount[_agent]++;\n        auditLog.push(AuditEntry({ agent: _agent, to: _to, amount: _amount, purpose: _purpose, memo: _memo, timestamp: block.timestamp, approved: true, requiresHuman: false }));\n        emit TransactionApproved(_agent, _to, _amount, _purpose);\n        return (true, false, 0);\n    }\n\n    function resolveApproval(uint256 _approvalId, bool _approve) external {\n        PendingApproval storage pa = pendingApprovals[_approvalId];\n        require(!pa.resolved, 'Already resolved');\n        require(msg.sender == agentOwners[pa.agent] || msg.sender == platformOwner, 'Not authorized');\n        pa.resolved = true;\n        pa.approved = _approve;\n        if (_approve) {\n            SpendingPolicy storage p = policies[pa.agent];\n            p.dailySpent += pa.amount;\n            p.monthlySpent += pa.amount;\n            txCount[pa.agent]++;\n        }\n        auditLog.push(AuditEntry({ agent: pa.agent, to: pa.to, amount: pa.amount, purpose: pa.purpose, memo: pa.memo, timestamp: block.timestamp, approved: _approve, requiresHuman: true }));\n        emit HumanApprovalResolved(_approvalId, _approve);\n    }\n\n    function freezeAgent(address _agent, string calldata _reason) external onlyAgentOwnerOrPlatform(_agent) { frozenAgents[_agent] = true; emit AgentFrozen(_agent, _reason); }\n    function unfreezeAgent(address _agent) external onlyAgentOwner(_agent) { frozenAgents[_agent] = false; emit AgentUnfrozen(_agent); }\n\n    function getAuditLogCount() external view returns (uint256) { return auditLog.length; }\n    function getAuditEntries(uint256 _offset, uint256 _limit) external view returns (AuditEntry[] memory entries) {\n        uint256 total = auditLog.length;\n        uint256 size = total - _offset;\n        if (size > _limit) size = _limit;\n        entries = new AuditEntry[](size);\n        for (uint256 i = 0; i < size; i++) { entries[i] = auditLog[_offset + i]; }\n        return entries;\n    }\n    function getPendingApprovalsCount() external view returns (uint256) { return pendingApprovals.length; }\n    function getAgentStats(address _agent) external view returns (uint256 dailySpent, uint256 monthlySpent, uint256 totalTxCount, bool isFrozen, bool policyActive) {\n        SpendingPolicy storage p = policies[_agent];\n        return (p.dailySpent, p.monthlySpent, txCount[_agent], frozenAgents[_agent], p.isActive);\n    }\n\n    function _resetCountersIfNeeded(SpendingPolicy storage _p) internal {\n        uint256 currentDay = block.timestamp / 1 days;\n        uint256 currentMonth = block.timestamp / 30 days;\n        if (currentDay > _p.lastDayReset) { _p.dailySpent = 0; _p.lastDayReset = currentDay; }\n        if (currentMonth > _p.lastMonthReset) { _p.monthlySpent = 0; _p.lastMonthReset = currentMonth; }\n    }\n\n    function _logBlocked(address _agent, address _to, uint256 _amount, string memory _reason) internal {\n        auditLog.push(AuditEntry({ agent: _agent, to: _to, amount: _amount, purpose: _reason, memo: 'BLOCKED', timestamp: block.timestamp, approved: false, requiresHuman: false }));\n        emit TransactionBlocked(_agent, _to, _amount, _reason);\n    }\n}",
  "sourcePath": "C:\\Users\\user\\Desktop\\IDQ Wallet\\backend\\contracts\\PolicyGuard.sol",
  "compiler": {
    "name": "solc",
    "version": "0.8.9+commit.e5eed63a.Emscripten.clang"
  },
  "schemaVersion": "3.4.16",
  "updatedAt": "2026-04-01T08:45:47.630Z",
  "devdoc": {
    "kind": "dev",
    "methods": {},
    "version": 1
  },
  "userdoc": {
    "kind": "user",
    "methods": {},
    "version": 1
  }
}