{
  "contractName": "WalletFactoryV4",
  "abi": [
    {
      "inputs": [],
      "stateMutability": "nonpayable",
      "type": "constructor"
    },
    {
      "anonymous": false,
      "inputs": [
        {
          "indexed": true,
          "internalType": "address",
          "name": "previousOwner",
          "type": "address"
        },
        {
          "indexed": true,
          "internalType": "address",
          "name": "newOwner",
          "type": "address"
        }
      ],
      "name": "OwnershipTransferred",
      "type": "event"
    },
    {
      "anonymous": false,
      "inputs": [
        {
          "indexed": false,
          "internalType": "address",
          "name": "addr",
          "type": "address"
        },
        {
          "indexed": false,
          "internalType": "string",
          "name": "did",
          "type": "string"
        }
      ],
      "name": "Registered",
      "type": "event"
    },
    {
      "anonymous": false,
      "inputs": [
        {
          "indexed": true,
          "internalType": "contract MultiSigWallet",
          "name": "wallet",
          "type": "address"
        },
        {
          "indexed": false,
          "internalType": "string",
          "name": "name",
          "type": "string"
        },
        {
          "indexed": false,
          "internalType": "address[]",
          "name": "owners",
          "type": "address[]"
        },
        {
          "indexed": false,
          "internalType": "uint256",
          "name": "required",
          "type": "uint256"
        }
      ],
      "name": "WalletCreated",
      "type": "event"
    },
    {
      "inputs": [
        {
          "internalType": "string",
          "name": "",
          "type": "string"
        }
      ],
      "name": "addrs",
      "outputs": [
        {
          "internalType": "address",
          "name": "",
          "type": "address"
        }
      ],
      "stateMutability": "view",
      "type": "function"
    },
    {
      "inputs": [
        {
          "internalType": "address",
          "name": "",
          "type": "address"
        }
      ],
      "name": "dids",
      "outputs": [
        {
          "internalType": "string",
          "name": "",
          "type": "string"
        }
      ],
      "stateMutability": "view",
      "type": "function"
    },
    {
      "inputs": [
        {
          "internalType": "address",
          "name": "",
          "type": "address"
        }
      ],
      "name": "isRegistered",
      "outputs": [
        {
          "internalType": "bool",
          "name": "",
          "type": "bool"
        }
      ],
      "stateMutability": "view",
      "type": "function"
    },
    {
      "inputs": [],
      "name": "owner",
      "outputs": [
        {
          "internalType": "address",
          "name": "",
          "type": "address"
        }
      ],
      "stateMutability": "view",
      "type": "function"
    },
    {
      "inputs": [
        {
          "internalType": "string",
          "name": "",
          "type": "string"
        },
        {
          "internalType": "uint256",
          "name": "",
          "type": "uint256"
        }
      ],
      "name": "vcs",
      "outputs": [
        {
          "internalType": "string",
          "name": "name",
          "type": "string"
        },
        {
          "internalType": "string",
          "name": "cid",
          "type": "string"
        }
      ],
      "stateMutability": "view",
      "type": "function"
    },
    {
      "inputs": [
        {
          "internalType": "uint256",
          "name": "",
          "type": "uint256"
        }
      ],
      "name": "wallets",
      "outputs": [
        {
          "internalType": "contract MultiSigWallet",
          "name": "",
          "type": "address"
        }
      ],
      "stateMutability": "view",
      "type": "function"
    },
    {
      "inputs": [],
      "name": "walletsCount",
      "outputs": [
        {
          "internalType": "uint256",
          "name": "",
          "type": "uint256"
        }
      ],
      "stateMutability": "view",
      "type": "function"
    },
    {
      "inputs": [
        {
          "internalType": "string",
          "name": "_name",
          "type": "string"
        },
        {
          "internalType": "address[]",
          "name": "_owners",
          "type": "address[]"
        },
        {
          "internalType": "uint256",
          "name": "_required",
          "type": "uint256"
        }
      ],
      "name": "createWallet",
      "outputs": [],
      "stateMutability": "nonpayable",
      "type": "function"
    },
    {
      "inputs": [
        {
          "internalType": "uint256",
          "name": "limit",
          "type": "uint256"
        },
        {
          "internalType": "uint256",
          "name": "offset",
          "type": "uint256"
        }
      ],
      "name": "getWallets",
      "outputs": [
        {
          "internalType": "contract MultiSigWallet[]",
          "name": "coll",
          "type": "address[]"
        }
      ],
      "stateMutability": "view",
      "type": "function"
    },
    {
      "inputs": [
        {
          "internalType": "address",
          "name": "_addr",
          "type": "address"
        },
        {
          "internalType": "string",
          "name": "_did",
          "type": "string"
        }
      ],
      "name": "register",
      "outputs": [],
      "stateMutability": "nonpayable",
      "type": "function"
    },
    {
      "inputs": [
        {
          "internalType": "string",
          "name": "_did",
          "type": "string"
        }
      ],
      "name": "getVcs",
      "outputs": [
        {
          "components": [
            {
              "internalType": "string",
              "name": "name",
              "type": "string"
            },
            {
              "internalType": "string",
              "name": "cid",
              "type": "string"
            }
          ],
          "internalType": "struct WalletFactoryV4.VcInfo[]",
          "name": "",
          "type": "tuple[]"
        }
      ],
      "stateMutability": "view",
      "type": "function"
    },
    {
      "inputs": [
        {
          "internalType": "string",
          "name": "_did",
          "type": "string"
        },
        {
          "internalType": "string",
          "name": "_name",
          "type": "string"
        },
        {
          "internalType": "string",
          "name": "_cid",
          "type": "string"
        }
      ],
      "name": "updateVc",
      "outputs": [],
      "stateMutability": "nonpayable",
      "type": "function"
    },
    {
      "inputs": [
        {
          "internalType": "address",
          "name": "newOwner",
          "type": "address"
        }
      ],
      "name": "transferOwnership",
      "outputs": [],
      "stateMutability": "nonpayable",
      "type": "function"
    }
  ],
  "bytecode": "0x608060405234801561001057600080fd5b5033600160006101000a81548173ffffffffffffffffffffffffffffffffffffffff021916908373ffffffffffffffffffffffffffffffffffffffff160217905550614b06806100616000396000f3fe60806040523480156200001157600080fd5b5060043610620000e25760003560e01c80637ad71f721162000099578063c3c5a547116200006f578063c3c5a5471462000290578063d4e15c7814620002c6578063e5b0ef9b14620002e6578063f2fde38b146200030657620000e2565b80637ad71f7214620002015780638da5cb5b1462000237578063afe32cb2146200025957620000e2565b80632cc2548f14620000e757806332434a2e146200011d5780633593f81b146200013d57806347b2470d14620001735780634ce9dde51462000195578063755c808714620001cb575b600080fd5b620001056004803603810190620000ff919062001398565b62000326565b6040516200011491906200142e565b60405180910390f35b6200013b60048036038101906200013591906200147c565b6200036f565b005b6200015b6004803603810190620001559190620014e2565b620005de565b6040516200016a9190620015a7565b60405180910390f35b6200017d62000686565b6040516200018c9190620015e6565b60405180910390f35b620001b36004803603810190620001ad919062001634565b62000692565b604051620001c29190620017a3565b60405180910390f35b620001e96004803603810190620001e3919062001398565b6200083e565b604051620001f8919062001931565b60405180910390f35b6200021f600480360381019062000219919062001955565b620009f3565b6040516200022e919062001998565b60405180910390f35b6200024162000a33565b6040516200025091906200142e565b60405180910390f35b620002776004803603810190620002719190620019b5565b62000a59565b6040516200028792919062001a1b565b60405180910390f35b620002ae6004803603810190620002a89190620014e2565b62000bd1565b604051620002bd919062001a73565b60405180910390f35b620002e46004803603810190620002de919062001b6b565b62000bf1565b005b620003046004803603810190620002fe919062001c05565b62000cef565b005b6200032460048036038101906200031e9190620014e2565b62000dca565b005b6004818051602081018201805184825260208301602085012081835280955050505050506000915054906101000a900473ffffffffffffffffffffffffffffffffffffffff1681565b600160009054906101000a900473ffffffffffffffffffffffffffffffffffffffff1673ffffffffffffffffffffffffffffffffffffffff163373ffffffffffffffffffffffffffffffffffffffff161462000402576040517f08c379a0000000000000000000000000000000000000000000000000000000008152600401620003f99062001d34565b60405180910390fd5b600260008373ffffffffffffffffffffffffffffffffffffffff1673ffffffffffffffffffffffffffffffffffffffff16815260200190815260200160002060009054906101000a900460ff161562000492576040517f08c379a0000000000000000000000000000000000000000000000000000000008152600401620004899062001dcc565b60405180910390fd5b6001600260008473ffffffffffffffffffffffffffffffffffffffff1673ffffffffffffffffffffffffffffffffffffffff16815260200190815260200160002060006101000a81548160ff02191690831515021790555080600360008473ffffffffffffffffffffffffffffffffffffffff1673ffffffffffffffffffffffffffffffffffffffff16815260200190815260200160002090805190602001906200053f92919062000fa4565b508160048260405162000553919062001e30565b908152602001604051809103902060006101000a81548173ffffffffffffffffffffffffffffffffffffffff021916908373ffffffffffffffffffffffffffffffffffffffff1602179055507fb3eccf73f39b1c07947c780b2b39df2a1bb058b4037b0a42d0881ca1a028a1328282604051620005d292919062001e49565b60405180910390a15050565b60036020528060005260406000206000915090508054620005ff9062001eac565b80601f01602080910402602001604051908101604052809291908181526020018280546200062d9062001eac565b80156200067e5780601f1062000652576101008083540402835291602001916200067e565b820191906000526020600020905b8154815290600101906020018083116200066057829003601f168201915b505050505081565b60008080549050905090565b60606200069e62000686565b821115620006e3576040517f08c379a0000000000000000000000000000000000000000000000000000000008152600401620006da9062001f32565b60405180910390fd5b600082620006f062000686565b620006fc919062001f83565b90508381106200070d57836200070f565b805b9050601481106200072257601462000724565b805b90508067ffffffffffffffff81111562000743576200074262001251565b5b604051908082528060200260200182016040528015620007725781602001602082028036833780820191505090505b50915060005b8181101562000836576000818562000791919062001fbe565b81548110620007a557620007a46200201b565b5b9060005260206000200160009054906101000a900473ffffffffffffffffffffffffffffffffffffffff16838281518110620007e657620007e56200201b565b5b602002602001019073ffffffffffffffffffffffffffffffffffffffff16908173ffffffffffffffffffffffffffffffffffffffff168152505080806200082d906200204a565b91505062000778565b505092915050565b606060058260405162000852919062001e30565b9081526020016040518091039020805480602002602001604051908101604052809291908181526020016000905b82821015620009e85783829060005260206000209060020201604051806040016040529081600082018054620008b69062001eac565b80601f0160208091040260200160405190810160405280929190818152602001828054620008e49062001eac565b8015620009355780601f10620009095761010080835404028352916020019162000935565b820191906000526020600020905b8154815290600101906020018083116200091757829003601f168201915b50505050508152602001600182018054620009509062001eac565b80601f01602080910402602001604051908101604052809291908181526020018280546200097e9062001eac565b8015620009cf5780601f10620009a357610100808354040283529160200191620009cf565b820191906000526020600020905b815481529060010190602001808311620009b157829003601f168201915b5050505050815250508152602001906001019062000880565b505050509050919050565b6000818154811062000a0457600080fd5b906000526020600020016000915054906101000a900473ffffffffffffffffffffffffffffffffffffffff1681565b600160009054906101000a900473ffffffffffffffffffffffffffffffffffffffff1681565b600582805160208101820180518482526020830160208501208183528095505050505050818154811062000a8c57600080fd5b90600052602060002090600202016000915091505080600001805462000ab29062001eac565b80601f016020809104026020016040519081016040528092919081815260200182805462000ae09062001eac565b801562000b315780601f1062000b055761010080835404028352916020019162000b31565b820191906000526020600020905b81548152906001019060200180831162000b1357829003601f168201915b50505050509080600101805462000b489062001eac565b80601f016020809104026020016040519081016040528092919081815260200182805462000b769062001eac565b801562000bc75780601f1062000b9b5761010080835404028352916020019162000bc7565b820191906000526020600020905b81548152906001019060200180831162000ba957829003601f168201915b5050505050905082565b60026020528060005260406000206000915054906101000a900460ff1681565b600083838360405162000c049062001035565b62000c129392919062002166565b604051809103906000f08015801562000c2f573d6000803e3d6000fd5b5090506000819080600181540180825580915050600190039060005260206000200160009091909190916101000a81548173ffffffffffffffffffffffffffffffffffffffff021916908373ffffffffffffffffffffffffffffffffffffffff1602179055508073ffffffffffffffffffffffffffffffffffffffff167f467134363b98966f95b3f5c5b3a4fef880fcf46db0752f27f77d960d06a4007085858560405162000ce19392919062002166565b60405180910390a250505050565b600060058460405162000d03919062001e30565b90815260200160405180910390209050806040518060400160405280858152602001848152509080600181540180825580915050600190039060005260206000209060020201600090919091909150600082015181600001908051906020019062000d7092919062000fa4565b50602082015181600101908051906020019062000d8f92919062000fa4565b5050508060058560405162000da5919062001e30565b908152602001604051809103902090805462000dc392919062001043565b5050505050565b600160009054906101000a900473ffffffffffffffffffffffffffffffffffffffff1673ffffffffffffffffffffffffffffffffffffffff163373ffffffffffffffffffffffffffffffffffffffff161462000e5d576040517f08c379a000000000000000000000000000000000000000000000000000000000815260040162000e549062001d34565b60405180910390fd5b600073ffffffffffffffffffffffffffffffffffffffff168173ffffffffffffffffffffffffffffffffffffffff16141562000ed0576040517f08c379a000000000000000000000000000000000000000000000000000000000815260040162000ec79062002227565b60405180910390fd5b62000edb8162000ede565b50565b6000600160009054906101000a900473ffffffffffffffffffffffffffffffffffffffff16905081600160006101000a81548173ffffffffffffffffffffffffffffffffffffffff021916908373ffffffffffffffffffffffffffffffffffffffff1602179055508173ffffffffffffffffffffffffffffffffffffffff168173ffffffffffffffffffffffffffffffffffffffff167f8be0079c531659141344cd1fd0a4f28419497f9722a3daafe3b4186f6b6457e060405160405180910390a35050565b82805462000fb29062001eac565b90600052602060002090601f01602090048101928262000fd6576000855562001022565b82601f1062000ff157805160ff191683800117855562001022565b8280016001018555821562001022579182015b828111156200102157825182559160200191906001019062001004565b5b509050620010319190620010e8565b5090565b612887806200224a83390190565b828054828255906000526020600020906002028101928215620010d55760005260206000209160020282015b82811115620010d45782826000820181600001908054620010909062001eac565b6200109d92919062001107565b506001820181600101908054620010b49062001eac565b620010c192919062001107565b505050916002019190600201906200106f565b5b509050620010e491906200119f565b5090565b5b8082111562001103576000816000905550600101620010e9565b5090565b828054620011159062001eac565b90600052602060002090601f0160209004810192826200113957600085556200118c565b82601f106200114c57805485556200118c565b828001600101855582156200118c57600052602060002091601f016020900482015b828111156200118b5782548255916001019190600101906200116e565b5b5090506200119b9190620010e8565b5090565b5b80821115620011d85760008082016000620011bc9190620011dc565b600182016000620011ce9190620011dc565b50600201620011a0565b5090565b508054620011ea9062001eac565b6000825580601f10620011fe57506200121f565b601f0160209004906000526020600020908101906200121e9190620010e8565b5b50565b6000604051905090565b600080fd5b600080fd5b600080fd5b600080fd5b6000601f19601f8301169050919050565b7f4e487b7100000000000000000000000000000000000000000000000000000000600052604160045260246000fd5b6200128b8262001240565b810181811067ffffffffffffffff82111715620012ad57620012ac62001251565b5b80604052505050565b6000620012c262001222565b9050620012d0828262001280565b919050565b600067ffffffffffffffff821115620012f357620012f262001251565b5b620012fe8262001240565b9050602081019050919050565b82818337600083830152505050565b6000620013316200132b84620012d5565b620012b6565b90508281526020810184848401111562001350576200134f6200123b565b5b6200135d8482856200130b565b509392505050565b600082601f8301126200137d576200137c62001236565b5b81356200138f8482602086016200131a565b91505092915050565b600060208284031215620013b157620013b06200122c565b5b600082013567ffffffffffffffff811115620013d257620013d162001231565b5b620013e08482850162001365565b91505092915050565b600073ffffffffffffffffffffffffffffffffffffffff82169050919050565b60006200141682620013e9565b9050919050565b620014288162001409565b82525050565b60006020820190506200144560008301846200141d565b92915050565b620014568162001409565b81146200146257600080fd5b50565b60008135905062001476816200144b565b92915050565b600080604083850312156200149657620014956200122c565b5b6000620014a68582860162001465565b925050602083013567ffffffffffffffff811115620014ca57620014c962001231565b5b620014d88582860162001365565b9150509250929050565b600060208284031215620014fb57620014fa6200122c565b5b60006200150b8482850162001465565b91505092915050565b600081519050919050565b600082825260208201905092915050565b60005b838110156200155057808201518184015260208101905062001533565b8381111562001560576000848401525b50505050565b6000620015738262001514565b6200157f81856200151f565b93506200159181856020860162001530565b6200159c8162001240565b840191505092915050565b60006020820190508181036000830152620015c3818462001566565b905092915050565b6000819050919050565b620015e081620015cb565b82525050565b6000602082019050620015fd6000830184620015d5565b92915050565b6200160e81620015cb565b81146200161a57600080fd5b50565b6000813590506200162e8162001603565b92915050565b600080604083850312156200164e576200164d6200122c565b5b60006200165e858286016200161d565b925050602062001671858286016200161d565b9150509250929050565b600081519050919050565b600082825260208201905092915050565b6000819050602082019050919050565b6000819050919050565b6000620016d2620016cc620016c684620013e9565b620016a7565b620013e9565b9050919050565b6000620016e682620016b1565b9050919050565b6000620016fa82620016d9565b9050919050565b6200170c81620016ed565b82525050565b600062001720838362001701565b60208301905092915050565b6000602082019050919050565b600062001746826200167b565b62001752818562001686565b93506200175f8362001697565b8060005b83811015620017965781516200177a888262001712565b975062001787836200172c565b92505060018101905062001763565b5085935050505092915050565b60006020820190508181036000830152620017bf818462001739565b905092915050565b600081519050919050565b600082825260208201905092915050565b6000819050602082019050919050565b600082825260208201905092915050565b6000620018118262001514565b6200181d8185620017f3565b93506200182f81856020860162001530565b6200183a8162001240565b840191505092915050565b6000604083016000830151848203600086015262001864828262001804565b9150506020830151848203602086015262001880828262001804565b9150508091505092915050565b60006200189b838362001845565b905092915050565b6000602082019050919050565b6000620018bd82620017c7565b620018c98185620017d2565b935083602082028501620018dd85620017e3565b8060005b858110156200191f5784840389528151620018fd85826200188d565b94506200190a83620018a3565b925060208a01995050600181019050620018e1565b50829750879550505050505092915050565b600060208201905081810360008301526200194d8184620018b0565b905092915050565b6000602082840312156200196e576200196d6200122c565b5b60006200197e848285016200161d565b91505092915050565b6200199281620016ed565b82525050565b6000602082019050620019af600083018462001987565b92915050565b60008060408385031215620019cf57620019ce6200122c565b5b600083013567ffffffffffffffff811115620019f057620019ef62001231565b5b620019fe8582860162001365565b925050602062001a11858286016200161d565b9150509250929050565b6000604082019050818103600083015262001a37818562001566565b9050818103602083015262001a4d818462001566565b90509392505050565b60008115159050919050565b62001a6d8162001a56565b82525050565b600060208201905062001a8a600083018462001a62565b92915050565b600067ffffffffffffffff82111562001aae5762001aad62001251565b5b602082029050602081019050919050565b600080fd5b600062001adb62001ad58462001a90565b620012b6565b9050808382526020820190506020840283018581111562001b015762001b0062001abf565b5b835b8181101562001b2e578062001b19888262001465565b84526020840193505060208101905062001b03565b5050509392505050565b600082601f83011262001b505762001b4f62001236565b5b813562001b6284826020860162001ac4565b91505092915050565b60008060006060848603121562001b875762001b866200122c565b5b600084013567ffffffffffffffff81111562001ba85762001ba762001231565b5b62001bb68682870162001365565b935050602084013567ffffffffffffffff81111562001bda5762001bd962001231565b5b62001be88682870162001b38565b925050604062001bfb868287016200161d565b9150509250925092565b60008060006060848603121562001c215762001c206200122c565b5b600084013567ffffffffffffffff81111562001c425762001c4162001231565b5b62001c508682870162001365565b935050602084013567ffffffffffffffff81111562001c745762001c7362001231565b5b62001c828682870162001365565b925050604084013567ffffffffffffffff81111562001ca65762001ca562001231565b5b62001cb48682870162001365565b9150509250925092565b7f546869732061646472657373206973206e6f7420616e206f776e65722061646460008201527f7265737321000000000000000000000000000000000000000000000000000000602082015250565b600062001d1c6025836200151f565b915062001d298262001cbe565b604082019050919050565b6000602082019050818103600083015262001d4f8162001d0d565b9050919050565b7f54686973206164647265737320697320616c726561647920726567697374657260008201527f6564212100000000000000000000000000000000000000000000000000000000602082015250565b600062001db46024836200151f565b915062001dc18262001d56565b604082019050919050565b6000602082019050818103600083015262001de78162001da5565b9050919050565b600081905092915050565b600062001e068262001514565b62001e12818562001dee565b935062001e2481856020860162001530565b80840191505092915050565b600062001e3e828462001df9565b915081905092915050565b600060408201905062001e6060008301856200141d565b818103602083015262001e74818462001566565b90509392505050565b7f4e487b7100000000000000000000000000000000000000000000000000000000600052602260045260246000fd5b6000600282049050600182168062001ec557607f821691505b6020821081141562001edc5762001edb62001e7d565b5b50919050565b7f6f6666736574206f7574206f6620626f756e6473000000000000000000000000600082015250565b600062001f1a6014836200151f565b915062001f278262001ee2565b602082019050919050565b6000602082019050818103600083015262001f4d8162001f0b565b9050919050565b7f4e487b7100000000000000000000000000000000000000000000000000000000600052601160045260246000fd5b600062001f9082620015cb565b915062001f9d83620015cb565b92508282101562001fb35762001fb262001f54565b5b828203905092915050565b600062001fcb82620015cb565b915062001fd883620015cb565b9250827fffffffffffffffffffffffffffffffffffffffffffffffffffffffffffffffff0382111562002010576200200f62001f54565b5b828201905092915050565b7f4e487b7100000000000000000000000000000000000000000000000000000000600052603260045260246000fd5b60006200205782620015cb565b91507fffffffffffffffffffffffffffffffffffffffffffffffffffffffffffffffff8214156200208d576200208c62001f54565b5b600182019050919050565b600081519050919050565b600082825260208201905092915050565b6000819050602082019050919050565b620020cf8162001409565b82525050565b6000620020e38383620020c4565b60208301905092915050565b6000602082019050919050565b6000620021098262002098565b620021158185620020a3565b93506200212283620020b4565b8060005b83811015620021595781516200213d8882620020d5565b97506200214a83620020ef565b92505060018101905062002126565b5085935050505092915050565b6000606082019050818103600083015262002182818662001566565b90508181036020830152620021988185620020fc565b9050620021a96040830184620015d5565b949350505050565b7f4f776e61626c653a206e6577206f776e657220697320746865207a65726f206160008201527f6464726573730000000000000000000000000000000000000000000000000000602082015250565b60006200220f6026836200151f565b91506200221c82620021b1565b604082019050919050565b60006020820190508181036000830152620022428162002200565b905091905056fe60806040523480156200001157600080fd5b5060405162002887380380620028878339818101604052810190620000379190620006c8565b60008251116200007e576040517f08c379a00000000000000000000000000000000000000000000000000000000081526004016200007590620007e9565b60405180910390fd5b60008111801562000090575081518111155b620000d2576040517f08c379a0000000000000000000000000000000000000000000000000000000008152600401620000c99062000881565b60405180910390fd5b60005b8251811015620002d6576000838281518110620000f757620000f6620008a3565b5b60200260200101519050600073ffffffffffffffffffffffffffffffffffffffff168173ffffffffffffffffffffffffffffffffffffffff16141562000174576040517f08c379a00000000000000000000000000000000000000000000000000000000081526004016200016b9062000922565b60405180910390fd5b600460008273ffffffffffffffffffffffffffffffffffffffff1673ffffffffffffffffffffffffffffffffffffffff16815260200190815260200160002060009054906101000a900460ff161562000204576040517f08c379a0000000000000000000000000000000000000000000000000000000008152600401620001fb9062000994565b60405180910390fd5b6001600460008373ffffffffffffffffffffffffffffffffffffffff1673ffffffffffffffffffffffffffffffffffffffff16815260200190815260200160002060006101000a81548160ff0219169083151502179055506001819080600181540180825580915050600190039060005260206000200160009091909190916101000a81548173ffffffffffffffffffffffffffffffffffffffff021916908373ffffffffffffffffffffffffffffffffffffffff160217905550508080620002cd90620009e5565b915050620000d5565b508260009080519060200190620002ef92919062000300565b508060028190555050505062000a98565b8280546200030e9062000a62565b90600052602060002090601f0160209004810192826200033257600085556200037e565b82601f106200034d57805160ff19168380011785556200037e565b828001600101855582156200037e579182015b828111156200037d57825182559160200191906001019062000360565b5b5090506200038d919062000391565b5090565b5b80821115620003ac57600081600090555060010162000392565b5090565b6000604051905090565b600080fd5b600080fd5b600080fd5b600080fd5b6000601f19601f8301169050919050565b7f4e487b7100000000000000000000000000000000000000000000000000000000600052604160045260246000fd5b6200041982620003ce565b810181811067ffffffffffffffff821117156200043b576200043a620003df565b5b80604052505050565b600062000450620003b0565b90506200045e82826200040e565b919050565b600067ffffffffffffffff821115620004815762000480620003df565b5b6200048c82620003ce565b9050602081019050919050565b60005b83811015620004b95780820151818401526020810190506200049c565b83811115620004c9576000848401525b50505050565b6000620004e6620004e08462000463565b62000444565b905082815260208101848484011115620005055762000504620003c9565b5b6200051284828562000499565b509392505050565b600082601f830112620005325762000531620003c4565b5b815162000544848260208601620004cf565b91505092915050565b600067ffffffffffffffff8211156200056b576200056a620003df565b5b602082029050602081019050919050565b600080fd5b600073ffffffffffffffffffffffffffffffffffffffff82169050919050565b6000620005ae8262000581565b9050919050565b620005c081620005a1565b8114620005cc57600080fd5b50565b600081519050620005e081620005b5565b92915050565b6000620005fd620005f7846200054d565b62000444565b905080838252602082019050602084028301858111156200062357620006226200057c565b5b835b818110156200065057806200063b8882620005cf565b84526020840193505060208101905062000625565b5050509392505050565b600082601f830112620006725762000671620003c4565b5b815162000684848260208601620005e6565b91505092915050565b6000819050919050565b620006a2816200068d565b8114620006ae57600080fd5b50565b600081519050620006c28162000697565b92915050565b600080600060608486031215620006e457620006e3620003ba565b5b600084015167ffffffffffffffff811115620007055762000704620003bf565b5b62000713868287016200051a565b935050602084015167ffffffffffffffff811115620007375762000736620003bf565b5b62000745868287016200065a565b92505060406200075886828701620006b1565b9150509250925092565b600082825260208201905092915050565b7f6e756d626572206f66206f776e657220616464726573736573206d757374206260008201527f65206d6f7265207468616e207a65726f21210000000000000000000000000000602082015250565b6000620007d160328362000762565b9150620007de8262000773565b604082019050919050565b600060208201905081810360008301526200080481620007c2565b9050919050565b7f696e76616c6964207265717569726564206e756d626572206f66206f776e657260008201527f7300000000000000000000000000000000000000000000000000000000000000602082015250565b60006200086960218362000762565b915062000876826200080b565b604082019050919050565b600060208201905081810360008301526200089c816200085a565b9050919050565b7f4e487b7100000000000000000000000000000000000000000000000000000000600052603260045260246000fd5b7f696e76616c696420616464726573730000000000000000000000000000000000600082015250565b60006200090a600f8362000762565b91506200091782620008d2565b602082019050919050565b600060208201905081810360008301526200093d81620008fb565b9050919050565b7f6f776e6572206973206e6f7420756e6971756500000000000000000000000000600082015250565b60006200097c60138362000762565b9150620009898262000944565b602082019050919050565b60006020820190508181036000830152620009af816200096d565b9050919050565b7f4e487b7100000000000000000000000000000000000000000000000000000000600052601160045260246000fd5b6000620009f2826200068d565b91507fffffffffffffffffffffffffffffffffffffffffffffffffffffffffffffffff82141562000a285762000a27620009b6565b5b600182019050919050565b7f4e487b7100000000000000000000000000000000000000000000000000000000600052602260045260246000fd5b6000600282049050600182168062000a7b57607f821691505b6020821081141562000a925762000a9162000a33565b5b50919050565b611ddf8062000aa86000396000f3fe6080604052600436106100ec5760003560e01c80638253951a1161008a578063dc8452cd11610059578063dc8452cd14610364578063e0cedd9c1461038f578063eda8b7cd146103ba578063fe0d94c1146103f757610141565b80638253951a146102935780639ace38c2146102d0578063b759f95414610310578063cf8d8ca01461033957610141565b806317d7de7c116100c657806317d7de7c146101d757806320c5429b146102025780632f54bf6e1461022b57806373ff81cc1461026857610141565b8063025e7c27146101465780631398a5f61461018357806314de327f146101ae57610141565b36610141573373ffffffffffffffffffffffffffffffffffffffff167fe1fffcc4923d04b559f4d29a8bfc6cda04eb5b0d3c460751c2402c5c5cc9109c34604051610137919061133d565b60405180910390a2005b600080fd5b34801561015257600080fd5b5061016d6004803603810190610168919061138e565b610413565b60405161017a91906113fc565b60405180910390f35b34801561018f57600080fd5b50610198610452565b6040516101a5919061133d565b60405180910390f35b3480156101ba57600080fd5b506101d560048036038101906101d091906114a8565b61045c565b005b3480156101e357600080fd5b506101ec610665565b6040516101f991906115b5565b60405180910390f35b34801561020e57600080fd5b506102296004803603810190610224919061138e565b6106f7565b005b34801561023757600080fd5b50610252600480360381019061024d91906115d7565b610962565b60405161025f919061161f565b60405180910390f35b34801561027457600080fd5b5061027d610982565b60405161028a919061133d565b60405180910390f35b34801561029f57600080fd5b506102ba60048036038101906102b5919061163a565b61098f565b6040516102c7919061161f565b60405180910390f35b3480156102dc57600080fd5b506102f760048036038101906102f2919061138e565b6109be565b60405161030794939291906116cf565b60405180910390f35b34801561031c57600080fd5b506103376004803603810190610332919061138e565b610ab3565b005b34801561034557600080fd5b5061034e610d4d565b60405161035b91906115b5565b60405180910390f35b34801561037057600080fd5b50610379610ddb565b604051610386919061133d565b60405180910390f35b34801561039b57600080fd5b506103a4610de1565b6040516103b191906118b7565b60405180910390f35b3480156103c657600080fd5b506103e160048036038101906103dc919061138e565b610f4d565b6040516103ee919061133d565b60405180910390f35b610411600480360381019061040c919061138e565b611028565b005b6001818154811061042357600080fd5b906000526020600020016000915054906101000a900473ffffffffffffffffffffffffffffffffffffffff1681565b6000600254905090565b600460003373ffffffffffffffffffffffffffffffffffffffff1673ffffffffffffffffffffffffffffffffffffffff16815260200190815260200160002060009054906101000a900460ff166104e8576040517f08c379a00000000000000000000000000000000000000000000000000000000081526004016104df90611925565b60405180910390fd5b600360405180608001604052808673ffffffffffffffffffffffffffffffffffffffff16815260200185815260200184848080601f016020809104026020016040519081016040528093929190818152602001838380828437600081840152601f19601f82011690508083019250505050505050815260200160001515815250908060018154018082558091505060019003906000526020600020906004020160009091909190915060008201518160000160006101000a81548173ffffffffffffffffffffffffffffffffffffffff021916908373ffffffffffffffffffffffffffffffffffffffff1602179055506020820151816001015560408201518160020190805190602001906105fe929190611281565b5060608201518160030160006101000a81548160ff021916908315150217905550505060016003805490506106339190611974565b7f08324b3d745b914e3abd4ffbfead91e3b78391a98c173202129215ab933adfbe60405160405180910390a250505050565b606060008054610674906119d7565b80601f01602080910402602001604051908101604052809291908181526020018280546106a0906119d7565b80156106ed5780601f106106c2576101008083540402835291602001916106ed565b820191906000526020600020905b8154815290600101906020018083116106d057829003601f168201915b5050505050905090565b600460003373ffffffffffffffffffffffffffffffffffffffff1673ffffffffffffffffffffffffffffffffffffffff16815260200190815260200160002060009054906101000a900460ff16610783576040517f08c379a000000000000000000000000000000000000000000000000000000000815260040161077a90611925565b60405180910390fd5b8060038054905081106107cb576040517f08c379a00000000000000000000000000000000000000000000000000000000081526004016107c290611a55565b60405180910390fd5b81600381815481106107e0576107df611a75565b5b906000526020600020906004020160030160009054906101000a900460ff161561083f576040517f08c379a000000000000000000000000000000000000000000000000000000000815260040161083690611af0565b60405180910390fd5b60016005600085815260200190815260200160002060003373ffffffffffffffffffffffffffffffffffffffff1673ffffffffffffffffffffffffffffffffffffffff16815260200190815260200160002060006101000a81548160ff02191690831515021790556108b057600080fd5b60006005600085815260200190815260200160002060003373ffffffffffffffffffffffffffffffffffffffff1673ffffffffffffffffffffffffffffffffffffffff16815260200190815260200160002060006101000a81548160ff021916908315150217905550823373ffffffffffffffffffffffffffffffffffffffff167fec9ab91322523c899ede7830ec9bfc992b5981cdcc27b91162fb23de5791117b60405160405180910390a3505050565b60046020528060005260406000206000915054906101000a900460ff1681565b6000600180549050905090565b60056020528160005260406000206020528060005260406000206000915091509054906101000a900460ff1681565b600381815481106109ce57600080fd5b90600052602060002090600402016000915090508060000160009054906101000a900473ffffffffffffffffffffffffffffffffffffffff1690806001015490806002018054610a1d906119d7565b80601f0160208091040260200160405190810160405280929190818152602001828054610a49906119d7565b8015610a965780601f10610a6b57610100808354040283529160200191610a96565b820191906000526020600020905b815481529060010190602001808311610a7957829003601f168201915b5050505050908060030160009054906101000a900460ff16905084565b600460003373ffffffffffffffffffffffffffffffffffffffff1673ffffffffffffffffffffffffffffffffffffffff16815260200190815260200160002060009054906101000a900460ff16610b3f576040517f08c379a0000000000000000000000000000000000000000000000000000000008152600401610b3690611925565b60405180910390fd5b806003805490508110610b87576040517f08c379a0000000000000000000000000000000000000000000000000000000008152600401610b7e90611a55565b60405180910390fd5b816005600082815260200190815260200160002060003373ffffffffffffffffffffffffffffffffffffffff1673ffffffffffffffffffffffffffffffffffffffff16815260200190815260200160002060009054906101000a900460ff1615610c26576040517f08c379a0000000000000000000000000000000000000000000000000000000008152600401610c1d90611b5c565b60405180910390fd5b8260038181548110610c3b57610c3a611a75565b5b906000526020600020906004020160030160009054906101000a900460ff1615610c9a576040517f08c379a0000000000000000000000000000000000000000000000000000000008152600401610c9190611af0565b60405180910390fd5b60016005600086815260200190815260200160002060003373ffffffffffffffffffffffffffffffffffffffff1673ffffffffffffffffffffffffffffffffffffffff16815260200190815260200160002060006101000a81548160ff021916908315150217905550833373ffffffffffffffffffffffffffffffffffffffff167f90ec57f18fa7b15c6b8d5e4d1deb90796c74b2ff23d4d0cecad0cb42a96b312860405160405180910390a350505050565b60008054610d5a906119d7565b80601f0160208091040260200160405190810160405280929190818152602001828054610d86906119d7565b8015610dd35780601f10610da857610100808354040283529160200191610dd3565b820191906000526020600020905b815481529060010190602001808311610db657829003601f168201915b505050505081565b60025481565b60606003805480602002602001604051908101604052809291908181526020016000905b82821015610f4457838290600052602060002090600402016040518060800160405290816000820160009054906101000a900473ffffffffffffffffffffffffffffffffffffffff1673ffffffffffffffffffffffffffffffffffffffff1673ffffffffffffffffffffffffffffffffffffffff16815260200160018201548152602001600282018054610e98906119d7565b80601f0160208091040260200160405190810160405280929190818152602001828054610ec4906119d7565b8015610f115780601f10610ee657610100808354040283529160200191610f11565b820191906000526020600020905b815481529060010190602001808311610ef457829003601f168201915b505050505081526020016003820160009054906101000a900460ff16151515158152505081526020019060010190610e05565b50505050905090565b6000805b6001805490508110156110225760056000848152602001908152602001600020600060018381548110610f8757610f86611a75565b5b9060005260206000200160009054906101000a900473ffffffffffffffffffffffffffffffffffffffff1673ffffffffffffffffffffffffffffffffffffffff1673ffffffffffffffffffffffffffffffffffffffff16815260200190815260200160002060009054906101000a900460ff161561100f5760018261100c9190611b7c565b91505b808061101a90611bd2565b915050610f51565b50919050565b806003805490508110611070576040517f08c379a000000000000000000000000000000000000000000000000000000000815260040161106790611a55565b60405180910390fd5b816003818154811061108557611084611a75565b5b906000526020600020906004020160030160009054906101000a900460ff16156110e4576040517f08c379a00000000000000000000000000000000000000000000000000000000081526004016110db90611af0565b60405180910390fd5b6002546110f084610f4d565b1015611131576040517f08c379a000000000000000000000000000000000000000000000000000000000815260040161112890611c67565b60405180910390fd5b60006003848154811061114757611146611a75565b5b9060005260206000209060040201905060018160030160006101000a81548160ff02191690831515021790555060008160000160009054906101000a900473ffffffffffffffffffffffffffffffffffffffff1673ffffffffffffffffffffffffffffffffffffffff168260010154836002016040516111c79190611d26565b60006040518083038185875af1925050503d8060008114611204576040519150601f19603f3d011682016040523d82523d6000602084013e611209565b606091505b505090508061124d576040517f08c379a000000000000000000000000000000000000000000000000000000000815260040161124490611d89565b60405180910390fd5b847fddb556f1d2c1ec821e910b019d3685b229db152a0ecd517ca7e24b8bd713928960405160405180910390a25050505050565b82805461128d906119d7565b90600052602060002090601f0160209004810192826112af57600085556112f6565b82601f106112c857805160ff19168380011785556112f6565b828001600101855582156112f6579182015b828111156112f55782518255916020019190600101906112da565b5b5090506113039190611307565b5090565b5b80821115611320576000816000905550600101611308565b5090565b6000819050919050565b61133781611324565b82525050565b6000602082019050611352600083018461132e565b92915050565b600080fd5b600080fd5b61136b81611324565b811461137657600080fd5b50565b60008135905061138881611362565b92915050565b6000602082840312156113a4576113a3611358565b5b60006113b284828501611379565b91505092915050565b600073ffffffffffffffffffffffffffffffffffffffff82169050919050565b60006113e6826113bb565b9050919050565b6113f6816113db565b82525050565b600060208201905061141160008301846113ed565b92915050565b611420816113db565b811461142b57600080fd5b50565b60008135905061143d81611417565b92915050565b600080fd5b600080fd5b600080fd5b60008083601f84011261146857611467611443565b5b8235905067ffffffffffffffff81111561148557611484611448565b5b6020830191508360018202830111156114a1576114a061144d565b5b9250929050565b600080600080606085870312156114c2576114c1611358565b5b60006114d08782880161142e565b94505060206114e187828801611379565b935050604085013567ffffffffffffffff8111156115025761150161135d565b5b61150e87828801611452565b925092505092959194509250565b600081519050919050565b600082825260208201905092915050565b60005b8381101561155657808201518184015260208101905061153b565b83811115611565576000848401525b50505050565b6000601f19601f8301169050919050565b60006115878261151c565b6115918185611527565b93506115a1818560208601611538565b6115aa8161156b565b840191505092915050565b600060208201905081810360008301526115cf818461157c565b905092915050565b6000602082840312156115ed576115ec611358565b5b60006115fb8482850161142e565b91505092915050565b60008115159050919050565b61161981611604565b82525050565b60006020820190506116346000830184611610565b92915050565b6000806040838503121561165157611650611358565b5b600061165f85828601611379565b92505060206116708582860161142e565b9150509250929050565b600081519050919050565b600082825260208201905092915050565b60006116a18261167a565b6116ab8185611685565b93506116bb818560208601611538565b6116c48161156b565b840191505092915050565b60006080820190506116e460008301876113ed565b6116f1602083018661132e565b81810360408301526117038185611696565b90506117126060830184611610565b95945050505050565b600081519050919050565b600082825260208201905092915050565b6000819050602082019050919050565b611750816113db565b82525050565b61175f81611324565b82525050565b600082825260208201905092915050565b60006117818261167a565b61178b8185611765565b935061179b818560208601611538565b6117a48161156b565b840191505092915050565b6117b881611604565b82525050565b60006080830160008301516117d66000860182611747565b5060208301516117e96020860182611756565b50604083015184820360408601526118018282611776565b915050606083015161181660608601826117af565b508091505092915050565b600061182d83836117be565b905092915050565b6000602082019050919050565b600061184d8261171b565b6118578185611726565b93508360208202850161186985611737565b8060005b858110156118a557848403895281516118868582611821565b945061189183611835565b925060208a0199505060018101905061186d565b50829750879550505050505092915050565b600060208201905081810360008301526118d18184611842565b905092915050565b7f6d73672e73656e646572206d757374206265206f776e65722061646472657373600082015250565b600061190f602083611527565b915061191a826118d9565b602082019050919050565b6000602082019050818103600083015261193e81611902565b9050919050565b7f4e487b7100000000000000000000000000000000000000000000000000000000600052601160045260246000fd5b600061197f82611324565b915061198a83611324565b92508282101561199d5761199c611945565b5b828203905092915050565b7f4e487b7100000000000000000000000000000000000000000000000000000000600052602260045260246000fd5b600060028204905060018216806119ef57607f821691505b60208210811415611a0357611a026119a8565b5b50919050565b7f747820646f6573206e6f74206578697374000000000000000000000000000000600082015250565b6000611a3f601183611527565b9150611a4a82611a09565b602082019050919050565b60006020820190508181036000830152611a6e81611a32565b9050919050565b7f4e487b7100000000000000000000000000000000000000000000000000000000600052603260045260246000fd5b7f7468697320747820616c72656164792065786563757465640000000000000000600082015250565b6000611ada601883611527565b9150611ae582611aa4565b602082019050919050565b60006020820190508181036000830152611b0981611acd565b9050919050565b7f747820616c726561647920617070726f76656400000000000000000000000000600082015250565b6000611b46601383611527565b9150611b5182611b10565b602082019050919050565b60006020820190508181036000830152611b7581611b39565b9050919050565b6000611b8782611324565b9150611b9283611324565b9250827fffffffffffffffffffffffffffffffffffffffffffffffffffffffffffffffff03821115611bc757611bc6611945565b5b828201905092915050565b6000611bdd82611324565b91507fffffffffffffffffffffffffffffffffffffffffffffffffffffffffffffffff821415611c1057611c0f611945565b5b600182019050919050565b7f617070726f76616c73203c207265717569726564000000000000000000000000600082015250565b6000611c51601483611527565b9150611c5c82611c1b565b602082019050919050565b60006020820190508181036000830152611c8081611c44565b9050919050565b600081905092915050565b60008190508160005260206000209050919050565b60008154611cb4816119d7565b611cbe8186611c87565b94506001821660008114611cd95760018114611cea57611d1d565b60ff19831686528186019350611d1d565b611cf385611c92565b60005b83811015611d1557815481890152600182019150602081019050611cf6565b838801955050505b50505092915050565b6000611d328284611ca7565b915081905092915050565b7f7478206661696c69640000000000000000000000000000000000000000000000600082015250565b6000611d73600983611527565b9150611d7e82611d3d565b602082019050919050565b60006020820190508181036000830152611da281611d66565b905091905056fea26469706673582212205779865d87fcf94d3b5aba9dcc543a4332edcdef65b341d55b58c5ba86b5717064736f6c63430008090033a2646970667358221220615bb43839308d47609352362ea52dbb5af7bdd18625acca48a8eb0d2addc7a564736f6c63430008090033",
  "immutableReferences": {},
  "source": "// SPDX-License-Identifier: MIT\r\npragma solidity >=0.8.0;\r\n\r\nimport \"./MultiSigWallet.sol\";\r\n\r\n/**\r\n * WalletFactoryV4コントラクト\r\n */\r\ncontract WalletFactoryV4 {\r\n    // Verifiable Credentials用の構造体\r\n    struct VcInfo {\r\n        // VCのファイル名\r\n        string name;\r\n        // VCのCID情報(IPFS)\r\n        string cid;\r\n    }\r\n\r\n    // MultiSigWallet型の配列\r\n    MultiSigWallet[] public wallets;\r\n    // 関数から返すことのできる最大値\r\n    uint256 constant maxLimit = 20;\r\n    // owner\r\n    address public owner;\r\n\r\n    // mapping\r\n    mapping(address => bool) public isRegistered;\r\n    mapping(address => string) public dids;\r\n    mapping(string => address) public addrs;\r\n    mapping(string => VcInfo[]) public vcs;\r\n\r\n    //modifier\r\n    modifier onlyOwner() {\r\n        require(msg.sender == owner, \"This address is not an owner address!\");\r\n        \r\n        _;\r\n    }\r\n\r\n    // event\r\n    event WalletCreated(\r\n        MultiSigWallet indexed wallet,\r\n        string name,\r\n        address[] owners,\r\n        uint256 required\r\n    );\r\n    event Registered(address addr, string did);\r\n    event OwnershipTransferred(\r\n        address indexed previousOwner,\r\n        address indexed newOwner\r\n    );\r\n\r\n    /**\r\n     * コンストラクター\r\n     */\r\n    constructor() {\r\n        owner = msg.sender;\r\n    }\r\n\r\n    /**\r\n     * MultiSigWalletのインスタンス数を取得する関数\r\n     */\r\n    function walletsCount() public view returns (uint256) {\r\n        return wallets.length;\r\n    }\r\n\r\n    /**\r\n     * MultiSigWalletのインスタンス生成関数\r\n     * @param _name ウォレットの名前\r\n     * @param _owners アドレスの配列\r\n     * @param _required 閾値\r\n     */\r\n    function createWallet(\r\n        string memory _name,\r\n        address[] memory _owners,\r\n        uint256 _required\r\n    ) public {\r\n        // インスタンスを生成\r\n        MultiSigWallet wallet = new MultiSigWallet(_name, _owners, _required);\r\n        // 配列に追加する。\r\n        wallets.push(wallet);\r\n        // イベントの発行\r\n        emit WalletCreated(wallet, _name, _owners, _required);\r\n    }\r\n\r\n    /**\r\n     * 作成済みウォレットの情報を取得するメソッド\r\n     */\r\n    function getWallets(uint256 limit, uint256 offset)\r\n        public\r\n        view\r\n        returns (MultiSigWallet[] memory coll)\r\n    {\r\n        require(offset <= walletsCount(), \"offset out of bounds\");\r\n        // 最大値を上回っている場合は、limitを格納する。\r\n        uint256 size = walletsCount() - offset;\r\n        size = size < limit ? size : limit;\r\n        // sizeは、maxLimitを超えてはならない。\r\n        size = size < maxLimit ? size : maxLimit;\r\n        coll = new MultiSigWallet[](size);\r\n\r\n        for (uint256 i = 0; i < size; i++) {\r\n            coll[i] = wallets[offset + i];\r\n        }\r\n\r\n        return coll;\r\n    }\r\n\r\n    /**\r\n     * register\r\n     * @param _addr address\r\n     * @param _did DID\r\n     */\r\n    function register(address _addr, string memory _did) public onlyOwner {\r\n        // check\r\n        require(!isRegistered[_addr], \"This address is already registered!!\");\r\n\r\n        // set\r\n        isRegistered[_addr] = true;\r\n        dids[_addr] = _did;\r\n        addrs[_did] = _addr;\r\n\r\n        emit Registered(_addr, _did);\r\n    }\r\n\r\n    /**\r\n     * getVcs function\r\n     * @param _did DID\r\n     * @return vcs[_did] Verifiable Credentials\r\n     */\r\n    function getVcs(string memory _did) public view returns (VcInfo[] memory) {\r\n        return vcs[_did];\r\n    }\r\n\r\n    /**\r\n     * updatVc function\r\n     * @param _did DID\r\n     * @param _name VC Name\r\n     * @param _cid VC's CID\r\n     */\r\n    function updateVc(\r\n        string memory _did,\r\n        string memory _name,\r\n        string memory _cid\r\n    ) public {\r\n        // get Vcinfo\r\n        VcInfo[] storage coll = vcs[_did];\r\n\r\n        // puch new Vc info\r\n        coll.push(VcInfo({name: _name, cid: _cid}));\r\n        // register again\r\n        vcs[_did] = coll;\r\n    }\r\n\r\n    /**\r\n     * @dev Transfers ownership of the contract to a new account (`newOwner`).\r\n     * Can only be called by the current owner.\r\n     */\r\n    function transferOwnership(address newOwner) public virtual onlyOwner {\r\n        require(\r\n            newOwner != address(0),\r\n            \"Ownable: new owner is the zero address\"\r\n        );\r\n        _transferOwnership(newOwner);\r\n    }\r\n\r\n    /**\r\n     * @dev Transfers ownership of the contract to a new account (`newOwner`).\r\n     * Internal function without access restriction.\r\n     */\r\n    function _transferOwnership(address newOwner) internal virtual {\r\n        address oldOwner = owner;\r\n        owner = newOwner;\r\n        emit OwnershipTransferred(oldOwner, newOwner);\r\n    }\r\n}",
  "sourcePath": "C:\\Users\\user\\Desktop\\IDQ Wallet\\backend\\contracts\\Wallet\\WalletFactoryV4.sol",
  "compiler": {
    "name": "solc",
    "version": "0.8.9+commit.e5eed63a.Emscripten.clang"
  },
  "schemaVersion": "3.4.16",
  "updatedAt": "2026-04-01T08:45:47.781Z",
  "devdoc": {
    "kind": "dev",
    "methods": {
      "createWallet(string,address[],uint256)": {
        "params": {
          "_name": "ウォレットの名前",
          "_owners": "アドレスの配列",
          "_required": "閾値"
        }
      },
      "getVcs(string)": {
        "params": {
          "_did": "DID"
        },
        "returns": {
          "_0": "vcs[_did] Verifiable Credentials"
        }
      },
      "register(address,string)": {
        "params": {
          "_addr": "address",
          "_did": "DID"
        }
      },
      "transferOwnership(address)": {
        "details": "Transfers ownership of the contract to a new account (`newOwner`). Can only be called by the current owner."
      },
      "updateVc(string,string,string)": {
        "params": {
          "_cid": "VC's CID",
          "_did": "DID",
          "_name": "VC Name"
        }
      }
    },
    "version": 1
  },
  "userdoc": {
    "kind": "user",
    "methods": {
      "constructor": {
        "notice": "コンストラクター"
      },
      "createWallet(string,address[],uint256)": {
        "notice": "MultiSigWalletのインスタンス生成関数"
      },
      "getVcs(string)": {
        "notice": "getVcs function"
      },
      "getWallets(uint256,uint256)": {
        "notice": "作成済みウォレットの情報を取得するメソッド"
      },
      "register(address,string)": {
        "notice": "register"
      },
      "updateVc(string,string,string)": {
        "notice": "updatVc function"
      },
      "walletsCount()": {
        "notice": "MultiSigWalletのインスタンス数を取得する関数"
      }
    },
    "notice": "WalletFactoryV4コントラクト",
    "version": 1
  }
}